:020000040800F2
:100000000050002051220008A91C0008AB1C000869
:10001000AD1C0008AF1C0008B11C00080000000067
:1000200000000000000000000000000071590008FE
:10003000B31C000800000000015A0008B51C0008AD
:1000400099220008992200089922000899220008A4
:100050009922000899220008992200089922000894
:100060009922000899220008992200089922000884
:100070009922000899220008992200089922000874
:100080009922000899220008992200089922000864
:100090009922000899220008992200089922000854
:1000A0009922000899220008992200089922000844
:1000B0009922000899220008CD1C00089922000806
:1000C0009922000899220008992200089922000824
:1000D0009922000899220008E51C0008D91C000894
:1000E00099220008992200089922000800000000C7
:1000F0000000000000000000000000000000000000
:0C01000000000000000000005FF808F1A3
:1001100010B5054C237833B9044B13B10448AFF341
:1001200000800123237010BD600200200000000049
:1001300098AB000808B5034B1BB103490348AFF364
:10014000008008BD000000006402002098AB000899
:10015000034613F8012B002AFBD1181A0138704707
:1001600081F0004102E000BF83F0004330B54FEA68
:1001700041044FEA430594EA050F08BF90EA020FD5
:100180001FBF54EA000C55EA020C7FEA645C7FEA68
:10019000655C00F0E2804FEA5454D4EB5555B8BF8B
:1001A0006D420CDD2C4480EA020281EA030382EAFC
:1001B000000083EA010180EA020281EA0303362D8E
:1001C00088BF30BD11F0004F4FEA01314FF4801C61
:1001D0004CEA113102D0404261EB410113F0004F73
:1001E0004FEA03334CEA133302D0524263EB43032A
:1001F00094EA050F00F0A780A4F10104D5F1200EC8
:100200000DDB02FA0EFC22FA05F2801841F1000122
:1002100003FA0EF2801843FA05F359410EE0A5F1F6
:1002200020050EF1200E012A03FA0EFC28BF4CF027
:10023000020C43FA05F3C01851EBE37101F00045DD
:1002400007D54FF0000EDCF1000C7EEB00006EEBEA
:100250000101B1F5801F1BD3B1F5001F0CD3490874
:100260005FEA30004FEA3C0C04F101044FEA4452CB
:1002700012F5800F80F09A80BCF1004F08BF5FEA52
:10028000500C50F1000041EB045141EA050130BD32
:100290005FEA4C0C404141EB0101013C28BFB1F544
:1002A000801FE9D291F0000F04BF01460020B1FA8F
:1002B00081F308BF2033A3F10B03B3F120020CDA62
:1002C0000C3208DD02F1140CC2F10C0201FA0CF040
:1002D00021FA02F10CE002F11402D8BFC2F1200CA5
:1002E00001FA02F120FA0CFCDCBF41EA0C0190405B
:1002F000E41AA2BF01EB0451294330BD6FEA0404A4
:100300001F3C1CDA0C340EDC04F11404C4F120028E
:1003100020FA04F001FA02F340EA030021FA04F3A0
:1003200045EA030130BDC4F10C04C4F1200220FAF7
:1003300002F001FA04F340EA0300294630BD21FA35
:1003400004F0294630BD94F0000F83F4801306BFFB
:1003500081F480110134013D4EE77FEA645C18BFEF
:100360007FEA655C29D094EA050F08BF90EA020F86
:1003700005D054EA000C04BF1946104630BD91EA7E
:10038000030F1EBF0021002030BD5FEA545C05D181
:100390004000494128BF41F0004130BD14F58004C0
:1003A0003CBF01F5801130BD01F0004545F0FE4134
:1003B00041F470014FF0000030BD7FEA645C1ABF69
:1003C000194610467FEA655C1CBF0B46024650EAA0
:1003D000013406BF52EA033591EA030F41F40021CC
:1003E00030BD00BF90F0000F04BF0021704730B552
:1003F0004FF4806404F132044FF000054FF0000127
:1004000050E700BF90F0000F04BF0021704730B5E7
:100410004FF4806404F1320410F0004548BF4042BC
:100420004FF000013EE700BF42004FEAE2014FEA11
:1004300031014FEA02701FBF12F07F4393F07F4FEC
:1004400081F06051704732F07F4208BF704793F0EF
:100450007F4F04BF41F40021704730B54FF4607402
:1004600001F0004521F000411CE700BF50EA010205
:1004700008BF704730B54FF000050AE050EA0102AE
:1004800008BF704730B511F0004502D5404261EB1E
:1004900041014FF4806404F132045FEA915C3FF45F
:1004A000D8AE4FF003025FEADC0C18BF03325FEAFC
:1004B000DC0C18BF033202EBDC02C2F1200300FAAD
:1004C00003FC20FA02F001FA03FE40EA0E0021FAD2
:1004D00002F11444BDE600BF70B54FF0FF0C4CF4C0
:1004E000E06C1CEA11541DBF1CEA135594EA0C0F72
:1004F00095EA0C0F00F0DEF82C4481EA030621EAAD
:100500004C5123EA4C5350EA013518BF52EA0335E7
:1005100041F4801143F4801338D0A0FB02CE4FF099
:100520000005E1FB02E506F00042E0FB03E54FF0C9
:100530000006E1FB03569CF0000F18BF4EF0010EC1
:10054000A4F1FF04B6F5007F64F5407404D25FEABD
:100550004E0E6D4146EB060642EAC62141EA555170
:100560004FEAC52040EA5E504FEACE2EB4F1FD0CB2
:1005700088BFBCF5E06F1ED8BEF1004F08BF5FEA30
:10058000500E50F1000041EB045170BD06F00046E2
:1005900046EA010140EA020081EA0301B4EB5C048F
:1005A000C2BFD4EB0C0541EA045170BD41F4801187
:1005B0004FF0000E013C00F3AB8014F1360FDEBFAC
:1005C000002001F0004170BDC4F10004203C35DA88
:1005D0000C341BDC04F11404C4F1200500FA05F30B
:1005E00020FA04F001FA05F240EA020001F00042AC
:1005F00021F0004110EBD37021FA04F642EB060122
:100600005EEA430E08BF20EAD37070BDC4F10C044B
:10061000C4F1200500FA04F320FA05F001FA04F20F
:1006200040EA020001F0004110EBD37041F10001FB
:100630005EEA430E08BF20EAD37070BDC4F1200506
:1006400000FA05F24EEA020E20FA04F301FA05F26E
:1006500043EA020321FA04F001F0004121FA04F216
:1006600020EA020000EBD3705EEA430E08BF20EAE6
:10067000D37070BD94F0000F0FD101F00046400020
:1006800041EB010111F4801F08BF013CF7D041EAA2
:10069000060195F0000F18BF704703F000465200A6
:1006A00043EB030313F4801F08BF013DF7D043EA77
:1006B0000603704794EA0C0F0CEA135518BF95EA2D
:1006C0000C0F0CD050EA410618BF52EA4306D1D1B4
:1006D00081EA030101F000414FF0000070BD50EAD3
:1006E000410606BF1046194652EA430619D094EA5D
:1006F0000C0F02D150EA013613D195EA0C0F05D147
:1007000052EA03361CBF104619460AD181EA03019A
:1007100001F0004141F0FE4141F470014FF0000052
:1007200070BD41F0FE4141F4780170BD70B54FF0ED
:10073000FF0C4CF4E06C1CEA11541DBF1CEA13556D
:1007400094EA0C0F95EA0C0F00F0A7F8A4EB05044F
:1007500081EA030E52EA03354FEA013100F0888046
:100760004FEA03334FF0805545EA131343EA12630F
:100770004FEA022245EA111545EA10654FEA0026C4
:100780000EF000419D4208BF964244F1FD0404F57D
:10079000407402D25B084FEA3202B61A65EB0305D9
:1007A0005B084FEA32024FF480104FF4002CB6EB96
:1007B000020E75EB030E22BFB61A754640EA0C0016
:1007C0005B084FEA3202B6EB020E75EB030E22BF56
:1007D000B61A754640EA5C005B084FEA3202B6EB97
:1007E000020E75EB030E22BFB61A754640EA9C0056
:1007F0005B084FEA3202B6EB020E75EB030E22BF26
:10080000B61A754640EADC0055EA060E18D04FEAE3
:10081000051545EA16754FEA06164FEAC30343EA83
:1008200052734FEAC2025FEA1C1CC0D111F4801F50
:100830000BD141EA00014FF000004FF0004CB6E749
:1008400011F4801F04BF01430020B4F1FD0C88BFE8
:10085000BCF5E06F3FF6AFAEB5EB030C04BFB6EBF3
:10086000020C5FEA500C50F1000041EB045170BDE6
:100870000EF0004E4EEA113114EB5C04C2BFD4EB13
:100880000C0541EA045170BD41F480114FF0000E97
:10089000013C90E645EA060E8DE60CEA135594EA13
:1008A0000C0F08BF95EA0C0F3FF43BAF94EA0C0F16
:1008B0000AD150EA01347FF434AF95EA0C0F7FF48B
:1008C00025AF104619462CE795EA0C0F06D152EADF
:1008D00003353FF4FDAE1046194622E750EA4106C3
:1008E00018BF52EA43067FF4C5AE50EA41047FF4D4
:1008F0000DAF52EA43057FF4EBAE12E74FF0FF3C39
:1009000006E000BF4FF0010C02E000BF4FF0010C09
:100910004DF804CD4FEA410C7FEA6C5C4FEA430C82
:1009200018BF7FEA6C5C1BD001B050EA410C0CBFD1
:1009300052EA430C91EA030F02BF90EA020F002033
:10094000704710F1000F91EA030F58BF994208BF9A
:1009500090422CBFD8176FEAE37040F00100704757
:100960004FEA410C7FEA6C5C02D150EA013C07D1AE
:100970004FEA430C7FEA6C5CD6D152EA033CD3D0F9
:100980005DF8040B704700BF8446104662468C46F3
:100990001946634600E000BF01B5FFF7B7FF002826
:1009A00048BF10F1000F01BD4DF808EDFFF7F4FF4F
:1009B0000CBF012000205DF808FB00BF4DF808EDDA
:1009C000FFF7EAFF34BF012000205DF808FB00BFFD
:1009D0004DF808EDFFF7E0FF94BF012000205DF81F
:1009E00008FB00BF4DF808EDFFF7CEFF94BF0120D4
:1009F00000205DF808FB00BF4DF808EDFFF7C4FFCD
:100A000034BF012000205DF808FB00BF4FEA410C15
:100A10007FEA6C5C02D150EA013C0AD14FEA430CF8
:100A20007FEA6C5C02D152EA033C02D14FF0000035
:100A300070474FF0010070474FEA410212F5001273
:100A400015D211D56FF47873B3EB625212D94FEA15
:100A5000C12343F0004343EA505311F0004F23FAFF
:100A600002F018BF404270474FF00000704750EA54
:100A7000013005D111F0004008BF6FF00040704711
:100A80004FF00000704700BF4A0011D212F500126B
:100A900011D20DD56FF47873B3EB62520ED44FEAD6
:100AA000C12343F0004343EA505323FA02F0704756
:100AB0004FF00000704750EA013002D14FF0FF3094
:100AC00070474FF0000070474FEA4102B2F1E04337
:100AD00024BFB3F5001CDCF1FE5C0DD901F0004C25
:100AE0004FEAC0024CEA5070B2F1004F40EB830075
:100AF00008BF20F00100704711F0804F21D113F1A1
:100B00003872BCBF01F00040704741F480114FEAD9
:100B10005252C2F11802C2F1200C10FA0CF320FA62
:100B200002F018BF40F001004FEAC1234FEAD3237F
:100B300003FA0CFC40EA0C0023FA02F34FEA4303E9
:100B4000CCE77FEA625307D150EA01331EBF4FF072
:100B5000FE4040F44000704701F0004040F0FE408D
:100B600040F40000704700BF80F0004002E000BF8A
:100B700081F0004142001FBF5FEA410392EA030F88
:100B80007FEA226C7FEA236C6AD04FEA1262D2EBD2
:100B90001363C1BFD218414048404140B8BF5B42D7
:100BA000192B88BF704710F0004F40F4000020F070
:100BB0007F4018BF404211F0004F41F4000121F086
:100BC0007F4118BF494292EA030F3FD0A2F10102D0
:100BD00041FA03FC10EB0C00C3F1200301FA03F10E
:100BE00000F0004302D5494260EB4000B0F5000F31
:100BF00013D3B0F1807F06D340084FEA310102F1F0
:100C00000102FE2A51D2B1F1004F40EBC25008BFA1
:100C100020F0010040EA03007047490040EB00006B
:100C2000013A28BFB0F5000FEDD2B0FA80FCACF16C
:100C3000080CB2EB0C0200FA0CF0AABF00EBC25099
:100C400052421843BCBFD0401843704792F0000F87
:100C500081F4000106BF80F400000132013BB5E7DA
:100C60004FEA41037FEA226C18BF7FEA236C21D050
:100C700092EA030F04D092F0000F08BF08467047B5
:100C800090EA010F1CBF0020704712F07F4F04D183
:100C9000400028BF40F00040704712F100723CBF96
:100CA00000F50000704700F0004343F0FE4040F4C0
:100CB000000070477FEA226216BF08467FEA23637E
:100CC0000146420206BF5FEA412390EA010F40F469
:100CD000800070474FF0000304E000BF10F00043B5
:100CE00048BF40425FEA000C08BF704743F096439C
:100CF00001464FF000001CE050EA010208BF7047B7
:100D00004FF000030AE000BF50EA010208BF70473D
:100D100011F0004302D5404261EB41015FEA010C52
:100D200002BF84460146002043F0B64308BFA3F14A
:100D30008053A3F50003BCFA8CF2083AA3EBC2532C
:100D400010DB01FA02FC634400FA02FCC2F120024B
:100D5000BCF1004F20FA02F243EB020008BF20F082
:100D60000100704702F1200201FA02FCC2F12002E8
:100D700050EA4C0021FA02F243EB020008BF20EADD
:100D8000DC7070474FF0FF0C1CEAD0521EBF1CEA0B
:100D9000D15392EA0C0F93EA0C0F6FD01A4480EAF9
:100DA000010C400218BF5FEA41211ED04FF00063E2
:100DB00043EA501043EA5111A0FB01310CF000400E
:100DC000B1F5000F3EBF490041EAD3715B0040EA34
:100DD000010062F17F02FD2A1DD8B3F1004F40EB04
:100DE000C25008BF20F00100704790F0000F0CF0D7
:100DF000004C08BF49024CEA502040EA51207F3A9B
:100E0000C2BFD2F1FF0340EAC250704740F4000075
:100E10004FF00003013A5DDC12F1190FDCBF00F066
:100E200000407047C2F10002410021FA02F1C2F114
:100E3000200200FA02FC5FEA310040F1000053EAB0
:100E40004C0308BF20EADC70704792F0000F00F0FE
:100E5000004C02BF400010F4000F013AF9D040EA04
:100E60000C0093F0000F01F0004C02BF490011F498
:100E7000000F013BF9D041EA0C018FE70CEAD15396
:100E800092EA0C0F18BF93EA0C0F0AD030F0004C16
:100E900018BF31F0004CD8D180EA010000F00040CA
:100EA000704790F0000F17BF90F0004F084691F088
:100EB000000F91F0004F14D092EA0C0F01D14202C2
:100EC0000FD193EA0C0F03D14B0218BF084608D18B
:100ED00080EA010000F0004040F0FE4040F40000D5
:100EE000704740F0FE4040F4400070474FF0FF0C68
:100EF0001CEAD0521EBF1CEAD15392EA0C0F93EAAF
:100F00000C0F69D0A2EB030280EA010C49024FEA00
:100F1000402037D04FF0805343EA111143EA1013B9
:100F20000CF000408B4238BF5B0042F17D024FF471
:100F3000000C8B4224BF5B1A40EA0C00B3EB510F4C
:100F400024BFA3EB510340EA5C00B3EB910F24BF35
:100F5000A3EB910340EA9C00B3EBD10F24BFA3EBBA
:100F6000D10340EADC001B0118BF5FEA1C1CE0D182
:100F7000FD2A3FF650AF8B4240EBC25008BF20F035
:100F8000010070470CF0004C4CEA50207F32C2BF89
:100F9000D2F1FF0340EAC250704740F400004FF026
:100FA0000003013A37E792F0000F00F0004C02BF57
:100FB000400010F4000F013AF9D040EA0C0093F021
:100FC000000F01F0004C02BF490011F4000F013B7B
:100FD000F9D041EA0C0195E70CEAD15392EA0C0FE3
:100FE00008D142027FF47DAF93EA0C0F7FF470AF1B
:100FF000084676E793EA0C0F04D14B023FF44CAF5E
:1010000008466EE730F0004C18BF31F0004CCAD1F2
:1010100030F000427FF45CAF31F000437FF43CAF2E
:101020005FE700BF4FF0FF3C06E000BF4FF0010C50
:1010300002E000BF4FF0010C4DF804CD4FEA400232
:101040004FEA41037FEA226C18BF7FEA236C11D07C
:1010500001B052EA530C18BF90EA010F58BFB2EB2F
:10106000030088BFC81738BF6FEAE17018BF40F0AF
:10107000010070477FEA226C02D15FEA402C05D163
:101080007FEA236CE4D15FEA412CE1D05DF8040BE8
:10109000704700BF844608466146FFE70FB5FFF77B
:1010A000C9FF002848BF10F1000F0FBD4DF808ED33
:1010B000FFF7F4FF0CBF012000205DF808FB00BF24
:1010C0004DF808EDFFF7EAFF34BF012000205DF87E
:1010D00008FB00BF4DF808EDFFF7E0FF94BF0120CB
:1010E00000205DF808FB00BF4DF808EDFFF7D2FFC8
:1010F00094BF012000205DF808FB00BF4DF808ED0B
:10110000FFF7C8FF34BF012000205DF808FB00BFD7
:1011100042000ED2B2F1FE4F0BD34FF09E03B3EB61
:10112000126209D44FEA002343F0004323FA02F08D
:1011300070474FF00000704712F1610F01D1420279
:1011400002D14FF0FF3070474FF00000704700BFF2
:1011500038B505460C460022002328462146FFF7F5
:101160002DFC28B928462146BDE8384000F00AB8D1
:10117000284604F1004100F005F8404261EB4101CE
:1011800038BD00BFD0B500220B4B06460F46FFF717
:10119000A3F9FFF779FC0446FFF724F90022074B77
:1011A000FFF79AF902460B4630463946FEF7DCFF58
:1011B000FFF76AFC2146D0BD0000F03D0000F04181
:1011C000084B094A09491A604FF07E5219615A606A
:1011D0004FF47A719A60DA605A610022C3E90621FD
:1011E000704700BF7C0200200000A0410080F9434E
:1011F00010B5044668B901224FF48041094801F056
:1012000049FA2246BDE810404FF40041054801F07C
:1012100041BA00224FF48041024801F03BFA01221A
:10122000F0E700BF001001407FB50025104CCDE96C
:101230000255E36822460193A3680E4900930E48C5
:10124000636800F0A5FB0D4E0121306000F023FA29
:1012500022696169306800F0FCFA2946306800F0C4
:101260007DFB2946064804B0BDE8704001F0A6BFEA
:101270007C020020A4020020A0020020A80200207E
:10128000D80200201D4BF7B51B685E8E012E32D1AF
:1012900000271B4C1B4D22696169286800F0D9FAB0
:1012A0000097E36861682868A26800F005FB164BA8
:1012B00021689868154B1860FFF716FFC8B13946CA
:1012C000286800F04BFB286800F007FA104B114C1F
:1012D0001868FFF71DFF20800020FFF789FF0E4BE5
:1012E00021881B680D48596303B0BDE8F04006F043
:1012F00025B83146E4E703B0F0BD00BF9000002000
:101300007C020020A8020020B0020020A0020020E1
:10131000A4020020AC0200208C030020B0AB000827
:101320000122024B1B681A80704700BF900000200A
:1013300070B54B4D4B4806F067F82B684A4E1A8D36
:10134000012A65D1B3F88420484CF261B3F86420D7
:10135000B3F8663020462280638000F08DF82B6859
:101360003060B3F86820B3F86A302046228063808A
:1013700000F082F82B687060B3F86C20B3F86E3020
:1013800020462280638000F077F82B68B060B3F8C5
:101390007020B3F8723020462280638000F06CF831
:1013A0002B68F060B3F87420B3F8763020462280C2
:1013B000638000F061F82B683061B3F87820B3F8EF
:1013C0007A3020466380228000F056F870616420F5
:1013D00003F0A0F82B681B8E012B04D100F0FAF863
:1013E00000222B681A862B689B8D012B04D100F0FC
:1013F000FBF800222B689A852B68DB8D012B04D12A
:1014000000F00AF900222B68DA85642003F082F8E4
:10141000174A2B6812880A20A3F87C200022A3F820
:10142000802003F077F8134B30681968FFF7A0FBB2
:1014300020F00040FEF7F8FF07A3D3E90023FFF7F1
:10144000C7FA2B6830B101225A850A20BDE87040E6
:1014500003F060B85885F8E79A9999999999B93F36
:1014600090000020C1AB00087C0200209C020020FC
:10147000AC020020A00200200023028862F30F03C8
:10148000428862F31F43184670470000002208B5E7
:10149000054B5A80187004F077FCBDE80840012223
:1014A0000249034802F0D7BAB0020020B823002056
:1014B000E4050020002313B50E4C022240F2DC713B
:1014C0002078019304F08CFE70B904F069FCADF84B
:1014D0000400012004F064FC074BBDF804201B68E5
:1014E000ADF806009A80D88001A8FFF7C5FF6060BC
:1014F00002B010BDB002002090000020002313B500
:101500000E4C022240F2E2712078019304F068FE52
:1015100070B904F045FCADF80400012004F040FC73
:10152000074BBDF804201B68ADF806001A815881EE
:1015300001A8FFF7A1FFE06002B010BDB0020020DB
:1015400090000020002313B50E4C022240F6220129
:101550002078019304F044FE70B904F021FCADF84A
:101560000400012004F01CFC074BBDF804201B689C
:10157000ADF806009A81D88101A8FFF77DFF2061B0
:1015800002B010BDB002002090000020002313B56F
:101590000E4C02224FF4FC612078019304F020FEEF
:1015A00070B904F0FDFBADF80400012004F0F8FB75
:1015B000074BBDF804201B68ADF806001A8258825C
:1015C00001A8FFF759FFA06002B010BDB0020020D3
:1015D00090000020034B42F2C6124FF408611878C5
:1015E00004F00EBEB002002010B5094C00202368A4
:1015F000998A04F0DFFB23680120D98A04F0DAFB22
:10160000BDE81040034B0222CD21187804F00CBE37
:1016100090000020B002002010B5094C0020236883
:10162000198B04F0C7FB23680120598B04F0C2FB1F
:10163000BDE81040034B0222D021187804F0F4BD1D
:1016400090000020B002002010B50B4C6378012BF5
:1016500003D1FFF7BFFF00236370A378012B03D1F1
:10166000FFF7C2FF0023A370E378012B03D1FFF73C
:10167000D3FF0023E37010BDB002002008B5FFF7D0
:1016800019FFFFF73BFFFFF75DFFFFF77FFFBDE8A7
:101690000840FFF7D9BF0129F8B504460CBF012760
:1016A000002717D190F84030A3B9036AC66B1D68B4
:1016B000C369C5621B68314603632846FFF71EFDF8
:1016C00008B1E66206E0A66B28463146FFF7F8FC53
:1016D0000028F6D184F84070F8BD2DE9F04F90F85D
:1016E0004050044685B025B90025284605B0BDE820
:1016F000F08F00F015FEA36A626BC31A9A42039042
:10170000F2D8E369D3F800A05046FEF78DFE0646F6
:101710000F46636A1868FEF787FE32463B46FEF7BF
:1017200023FD8046206B8946FEF77EFE02460B466F
:1017300030463946FEF718FDCDE900012069FEF775
:1017400073FE42464B46FEF7C7FE0646E06A0F466A
:10175000FEF76AFE0B46024639463046FEF706FDA6
:10176000FFF7B2F994F84130E06202939BB9FEF7BB
:101770005BFE0646E0680F46FEF756FEDDE90023F5
:10178000FEF7AAFE02460B4630463946FEF7ECFC51
:10179000FFF79AF9E062E76AD4F83CB03846594658
:1017A000FFF7ACFC002848D0C4F82CB0029B002BFB
:1017B0004CD0E068FEF738FE42464B46FEF78CFE02
:1017C00006460F46E06AFEF72FFE804660698946AE
:1017D000FEF72AFEDDE90023FEF77EFE02460B46F9
:1017E00040464946FEF7C0FC32463B46FEF7BEFC8B
:1017F000804689465846FEF717FE42464B46064647
:101800000F46FFF7DBF858B9A06BFEF70DFE424616
:101810004B4606460F46FFF7EFF808B946464F46D7
:1018200030463946FFF750F9D4F82080039BC8F8BA
:101830000000C4F830A0A36257E7A66B38463146D3
:10184000FFF73EFC0028B1D0E662AFE70026002794
:10185000B8E72DE9F0410D460446114628461646E4
:10186000FFF742FC28BB94F84030A563E66303B35E
:10187000276A3146D7F800804046FFF73FFC48B161
:101880003E60E66AE56B30462946FFF737FC48B113
:10189000E5620EE029464046FFF712FC0028F0D032
:1018A0003D60EEE7A56B30462946FFF709FC0028AE
:1018B000EED1BDE8F08100002DE9F0410D4604466F
:1018C0000021284617461E469DF81880FFF7F8FBB2
:1018D00000283ED100213846FFF7F2FB002838D11E
:1018E00000213046FFF7ECFB002832D108F1FF332E
:1018F00084F81980D3F1000848EB030884F841808C
:101900006760A660606B2560FFF7E4F91249FFF796
:10191000EDFAE560014680463846FFF733FA414666
:10192000206107463046FFF7E1FA237E0646012B89
:1019300060610ED129460020FFF71AF93946E060B0
:101940000020FFF715F9314620610020FFF710F95C
:101950006061BDE8F08100BF00007A4438B590F8BE
:10196000403004460D468BB1037E8B420ED0C168D9
:101970000020FFF7FDF82169E0600020FFF7F8F88C
:10198000616920610020FFF7F3F86061257638BDBA
:101990002DE9F34107464420164688461D4604F0CB
:1019A000EBFC002380F84030002383630E4B044699
:1019B000C3636423C0E907789DF82C104662436333
:1019C000FFF7CCFF9DF8283029462046089A00935F
:1019D000099BFFF771FF00F0A3FC636BC01AA062C4
:1019E000204602B0BDE8F08100007F4308B50748FB
:1019F00005F00AFD42F2107002F08CFD044CFFF776
:101A000041FCE06902F086FDF9E700BFD4AB0008B5
:101A10007C02002008B5054805F0F6FC642002F0C1
:101A200079FDFFF785FC4FF47A70F8E7EEAB00081C
:101A300008B5054805F0E8FC642002F06BFDFFF7EF
:101A40001DFE4FF4FA70F8E702AC000808B505482F
:101A500005F0DAFC642002F05DFD02F033FA0A20A2
:101A6000F9E700BF15AC000813B50024194801F0D0
:101A700013F94FF4E133022201212046009402F0D1
:101A8000B5F902F00DFAFFF79BFBF720FFF7FEFC1C
:101A9000FFF7CAFBFFF744FC21460F4A0F4802F04C
:101AA000DDFC0F4B214618600E4A0F4802F0D6FCB1
:101AB0000E4B214618600E4A0E4802F0CFFC0E4B2A
:101AC000214618600D4A0E4802F0C8FC0D4B186004
:101AD00002B010BD4004002078AC0008ED190008E9
:101AE000C8020020C0AC0008151A0008D00200206F
:101AF00054AC0008311A0008C40200209CAC000855
:101B00004D1A0008CC020020102210B588B00DEB51
:101B10000200002105F078FD1F4B204C9A692046F9
:101B200042F010029A619A694FF4804102F010026B
:101B30000092009A9A6942F020029A619A6902F032
:101B400020020192019A9A6942F004029A619A690C
:101B500002F004020292029A9A6942F008029A6123
:101B60009B69012203F008030393039B00F092FD9D
:101B7000204600224FF4004100F08CFD4FF440421B
:101B80000123CDE9042306930323204604A90793E8
:101B900000F0A6FC08B010BD00100240001001408B
:101BA00007B54FF0FF330190012201A9034801F06E
:101BB000EDFC019803B05DF804FB00BFF4040020C5
:101BC00010B590B01422002108A805F01DFD1422C4
:101BD000002101A805F018FD02244FF480330122F2
:101BE000CDE90D43CDE906234FF4E01306A80A9290
:101BF0000F9300F055FD08B172B6FEE70F23CDE953
:101C000001344FF480630390CDE90430214601A8EC
:101C100000F008FF08B172B6FEE710B010BD08B5BD
:101C200000F060FBFFF7CCFFFFF76EFF00F0C2F99A
:101C300000F0ECF800F00EFA00F028FA00F042FA9A
:101C400000F018F902F0CEFBFFF70EFF02F0E6FB02
:101C5000FEE772B6FEE70000114B07B59A690F2147
:101C600042F001029A619A696FF0010002F00102EC
:101C70000092009ADA6942F08052DA61DB69002250
:101C800003F080530193019B00F062FB054A536807
:101C900023F0E06343F00073536003B05DF804FB8E
:101CA0000010024000000140FEE7FEE7FEE7FEE70D
:101CB000FEE7704708B500F027FB03F0E3FB0128BF
:101CC00003D0BDE8084003F0BDBE08BD014801F0E7
:101CD00009B800BF40040020014801F0F7BC00BF74
:101CE000E405002010B50C4C204601F0EFFC236801
:101CF000DB689A0601D502F0F7FA2368DB681B0659
:101D000001D502F0EBFA262000F074FBBDE810408C
:101D1000014801F0DBBC00BF6C050020034B0268EA
:101D20001B689A4201D102F015BB704740040020A5
:101D300010B5074C026823689A4208D104F0DEFA15
:101D40002046BDE810400122024901F084BE10BDCA
:101D5000E4050020B82300200120704708B505F0F5
:101D6000B5FC162303604FF0FF3008BD08B505F041
:101D7000ADFC16230360FEE770B50D4614460E4613
:101D8000731B9C4201DC204670BDAFF3008006F857
:101D9000010BF5E770B50D4614460E46731B9C42C9
:101DA00001DC204670BD16F8010BFFF7F9FEF5E7E0
:101DB0004FF0FF3070474FF4005300204B607047E6
:101DC00001207047002070470B4A0346116810B588
:101DD00009B90A491160106809490A4C0344091BF2
:101DE0008B4206D905F072FC0C2303604FF0FF30E4
:101DF00010BD1360FCE700BFD402002008250020BE
:101E00000050002000040000704700007FB5102241
:101E1000002102A805F0F8FB40F60F6213481449B0
:101E20000023C0E900122322CDE90033C0E90323D7
:101E30008360836101F006FA08B1FFF70AFF4FF4EF
:101E400080530A4802A9029301F0C1F808B1FFF7D4
:101E500000FF002369460548CDE9003301F05EFA32
:101E600008B1FFF7F6FE07B05DF804FB8C03002015
:101E7000000400407FB51022002102A805F0C4FB39
:101E800040F60F62134814490023C0E900122322D0
:101E9000CDE90033C0E903238360836101F0D2F907
:101EA00008B1FFF7D6FE4FF480530A4802A9029307
:101EB00001F08DF808B1FFF7CCFE00236946054814
:101EC000CDE9003301F02AFA08B1FFF7C2FE07B0EE
:101ED0005DF804FB40040020000800401FB50368C3
:101EE000B3F1804F0DD103F50433DA6942F00102FA
:101EF000DA61DB6903F001030193019B05B05DF832
:101F000004FB164A934214D1154B1D20DA690521B2
:101F100042F00202DA61DB69002203F0020302935D
:101F2000029B00F015FA1D2005B05DF804EB00F0EF
:101F30003FBA0C4A9342E1D1094B1E20DA690521D0
:101F400042F00402DA61DB69002203F00403039328
:101F5000039B00F0FDF91E20E6E700BF00040040EF
:101F6000001002400008004010B5044686B0102260
:101F7000002102A805F048FB2368B3F1804F14D17B
:101F800003F504339A690A4842F004029A619B6996
:101F9000012203F004030193019B0223CDE90223F4
:101FA000032302A9059300F09BFA06B010BD00BF01
:101FB0000008014010B58EB01022002103A805F0E2
:101FC00023FB00241C2221460DEB0200CDE9014435
:101FD00005F01AFB47234FF080421D48C0E900235B
:101FE00040F2F3138460C0E90334846101F02AF9FC
:101FF00008B1FFF72EFE4FF48053154803A9039351
:1020000000F0E5FF08B1FFF724FE114801F050F998
:1020100008B1FFF71EFE00240D4801A9CDE90144D7
:1020200001F07CF908B1FFF714FE6023CDE9073415
:1020300002230022064807A909930B9400F064FFCD
:1020400008B1FFF706FE0248FFF78EFF0EB010BD85
:10205000D802002008B54FF4E1330A480A4AC0E923
:10206000002300230C22C0E90233C0E905230361E9
:10207000C36101F09DFC18B1BDE80840FFF7E9BD60
:1020800008BD00BFF40400200038014008B54FF43B
:10209000E1330A480A4AC0E9002300230C22C0E9C0
:1020A0000233C0E905230361C36101F081FC18B16B
:1020B000BDE80840FFF7CDBD08BD00BF6C0500209E
:1020C0000044004008B54FF496430C480C4A4FF4C6
:1020D0008051C0E900234FF4806C00230C22C0E93A
:1020E0000213C0E904C2C0E9063301F061FC18B173
:1020F000BDE80840FFF7ADBD08BD00BFE405002006
:102100000048004010B504468AB01022002106A8FD
:1021100005F07AFA2368484A934229D1474B4FF495
:1021200000709A6906A942F480429A619A694FF454
:10213000806402F480420092009A9A6942F004029C
:102140009A619B6903F004030193019B0223CDE98B
:10215000060303233A48099300F0C2F900233848E4
:1021600006A9CDE90643089300F0BAF90AB010BDFC
:10217000344A93422ED1314B0421DA69304842F47B
:102180000032DA61DA69002402F400320292029A23
:102190009A6942F004029A619B6903F00403039375
:1021A000039B0223CDE90613032306A9099300F03C
:1021B00097F90823224806A9CDE90634089400F0CF
:1021C0008FF926202246052100F0C2F8262000F0D3
:1021D000EFF8CBE71C4A9342C8D1184B1B48DA6989
:1021E00006A942F48022DA61DA69002402F480222E
:1021F0000492049A9A6942F008029A619B694FF42A
:10220000806203F008030593059B0223CDE90623B2
:102210000323099300F064F94FF400630B4806A907
:10222000CDE90634089400F05BF927202246052109
:1022300000F08EF82720CAE7003801400010024065
:10224000000801400044004000480040000C0140EC
:10225000FFF7DAFD0B480C490C4A002302E0D45882
:10226000C4500433C4188C42F9D3094A094C0023E2
:1022700001E013600432A242FBD305F02DFAFFF710
:10228000CEFC7047000000206002002058B3000818
:102290006002002008250020FEE7000038B50E4B44
:1022A00005461A784FF47A73B3FBF2F30B4A1068C1
:1022B000B0FBF3F000F08AF8044658B90F2D09D8A6
:1022C000024629464FF0FF3000F042F82046044B0A
:1022D0001D6038BD0120FCE7040000200000002044
:1022E00008000020074A08B51368032043F01003D4
:1022F000136000F01BF80F20FFF7D0FFFFF7ACFCD6
:10230000002008BD00200240034A044B11681B78DE
:102310000B441360704700BF5C06002004000020DF
:10232000014B1868704700BF5C0600200749030294
:10233000CA6803F4E06322F4E0621204120C13434F
:1023400043F0BF6343F40033CB60704700ED00E01F
:10235000154B30B5DC68C4F30224C4F10703251D16
:10236000042B28BF0423062D4FF0FF3594BF002413
:10237000033C05FA03F321EA0303A54022EA050220
:10238000A340002843EA0203ACBF00F16040074AC3
:102390004FEA0313DBB2ABBF00F5614000F00F0062
:1023A00080F80033135430BD00ED00E014ED00E080
:1023B000002807DB01234109034A00F01F00834086
:1023C00042F82130704700BF00E100E00138B0F171
:1023D000807F0BD24FF0E023F021054A586182F84C
:1023E00023100020072298611A617047012070476E
:1023F00000ED00E0002808DB01224309034900F05A
:102400001F008240603341F82320704700E100E064
:1024100090F821200346022A06D00422826301207C
:10242000002283F8202070470268C06B116821F0F9
:102430000E011160116821F00101116001211A6C77
:1024400001FA02F24260002083F82110E8E7000060
:1024500010B590F82130022B03D0042383630120B0
:1024600010BD03681A6822F00E021A601A6822F082
:1024700001021A60184A93421FD0143293421ED0B0
:10248000143293421DD0143293421DD01432934221
:102490001DD0143293420CBF4FF480134FF0807361
:1024A0000E4A00245360012380F82130436B80F8EA
:1024B00020407BB198472046D2E70123F0E7102364
:1024C000EEE74FF48073EBE74FF48053E8E74FF407
:1024D0008033E5E71846C3E70800024000000240E9
:1024E0002DE9F74F00221646644F654BDFF894C183
:1024F000DFF894E10D6835FA06F402D103B0BDE8C7
:10250000F08F4FF0010808FA06F805EA080438EAE7
:1025100005057AD14D68032D07D8013D022D00F243
:102520008780DFE805F0959AA000122D00F09880D2
:102530006DD8112D00F08E80FF2C98BF82464FF091
:102540000F0988BF00F1040A4FEA8605DAF8008017
:1025500088BF203D09FA05FB28EA0B0802FA05F5B9
:1025600048EA0505CAF80050D1F804A01AF0805FC7
:102570004BD0BD6926F0030845F00105BD61BD697A
:1025800008F1804805F00105019508F5803806F04E
:10259000030B019D4FEA8B0BD8F8085009FA0BF991
:1025A00025EA0909394DA84261D005F58065A842A0
:1025B0005FD005F58065A8425DD005F58065A8422D
:1025C0000CBF0325042505FA0BF545EA0905C8F8F3
:1025D00008509D681AF4801F14BF2543A5439D60D1
:1025E000DD681AF4001F14BF2543A543DD605D6854
:1025F0001AF4003F14BF2543A5435D601D681AF41B
:10260000803F14BF2543A5431D60013672E7DFF804
:1026100080904D450CD017D8A9F580194D4507D0AD
:1026200009F570294D4503D0A9F580194D4583D191
:102630008A68D2B1012A08BFC0F810804FF00802A2
:1026400018BFC0F8148077E76545F1D07545EEE70F
:10265000CA6871E7CA6804326EE7CA6808326BE775
:10266000CA680C3268E7002266E7042264E70025A6
:10267000A9E70125A7E70225A5E700BF0010024052
:102680000004014000003110000032100008014039
:10269000000022100AB1016170470904FBE7000045
:1026A0002DE9F341054638B30368DB0710D42B68E6
:1026B0009F075ED42B68190700F195802B685A0795
:1026C00000F1C180E869002840F02C81002029E059
:1026D000904C636803F00C03042B07D0636803F08D
:1026E0000C03082B0AD16368DE0307D523689C031B
:1026F000DDD56B68002BDAD1012013E06B68B3F5F0
:10270000803F12D1236843F480332360FFF708FE33
:10271000064623689803CAD4FFF702FE801B64288C
:10272000F7D9032002B0BDE8F0819BB9236823F4F8
:1027300080332360236823F480232360FFF7F0FDB8
:10274000064623689903B2D5FFF7EAFD801B64288B
:10275000F7D9E6E7B3F5A02F236803D143F480232C
:102760002360CFE723F480332360236823F480239E
:10277000CBE7684C636813F00C0F07D0636803F075
:102780000C03082B10D16368DA030DD423689B0770
:1027900002D52B69012BAFD123686A6923F0F803B6
:1027A00043EAC203236085E72A695B4B6AB10122D1
:1027B0001A60FFF7B5FD064623689F07ECD4FFF7C4
:1027C000AFFD801B0228F7D9ABE71A60FFF7A8FD21
:1027D0000646236898077FF56DAFFFF7A1FD801BC4
:1027E0000228F6D99DE7AA694A4E4B4BE2B1012275
:1027F000C3F88024FFF794FD0446736A9B070DD548
:102800004FF4FA52454B1B68B3FBF2F3019300BF40
:10281000019B5A1E0192002BF9D14FE7FFF780FD73
:10282000001B0228E9D97CE7C3F88024FFF778FD74
:102830000446736A9F077FF541AFFFF771FD001BE8
:102840000228F6D96DE7334CE369D80024D4012778
:10285000E36943F08053E361E36903F0805300933D
:10286000009B2F4E3368D90518D5EB68012B26D174
:10287000236A43F001032362FFF752FD41F28838D7
:102880000646236A9B073FD5002F3FF41BAFE36941
:1028900023F08053E36115E70027E2E7336843F450
:1028A00080733360FFF73CFD80463368DA05DCD483
:1028B000FFF736FDA0EB08006428F6D931E7ABB985
:1028C000236A41F2883823F001032362236A23F04C
:1028D00004032362FFF724FD0646236A9807D3D535
:1028E000FFF71EFD801B4045F7D91AE7052B236A29
:1028F00003D143F004032362BAE723F00103236208
:10290000236A23F00403B6E7FFF70AFD801B404566
:10291000B7D906E700100240000042420000002044
:10292000007000402A4C636803F00C03082B3ED073
:102930000022284B02281A662CD1FFF7F1FC06462C
:102940002368990120D42B6AB3F5803F05D16268D2
:10295000A96822F400320A436260696A62680B4324
:1029600022F474121343012263601A4B1A66FFF7B4
:10297000D7FC054623689A013FF5A8AEFFF7D0FCC7
:10298000401B0228F6D9CCE6FFF7CAFC801B0228C0
:10299000D6D9C6E6FFF7C4FC054623689B017FF540
:1029A00095AEFFF7BDFC401B0228F6D9B9E6012819
:1029B0003FF4B8AE63682A6A03F4803191427FF431
:1029C0009BAE6A6A03F4701393423FF47FAE93E6C2
:1029D00000100240000042420D4A536803F00C010F
:1029E000082912D10B48C3F38341DB03405C09D5AE
:1029F0005368094AC3F340435043084AD35CB0FBD1
:102A0000F3F07047064B584370470348704700BFC8
:102A100000100240FCAC000800127A000CAD000867
:102A200000093D002DE9F0410D46044610B9012092
:102A3000BDE8F081444A136803F007038B4228D3B2
:102A400021688E0730D4CA0743D43F4A136803F085
:102A50000703AB4265D822683C4D12F0040F6CD1DD
:102A6000130706D56B68226923F4605343EAC20357
:102A70006B60FFF7B1FF6B68354AC3F30313D35C98
:102A8000D840344B1860344B1868FFF707FC00201F
:102A9000CEE7136823F007030B431360136803F0BA
:102AA00007038B42C3D1CBE7284B11F0040F1EBFA5
:102AB0005A6842F4E0625A60080742BF5A6842F41A
:102AC00060525A605A68A06822F0F00202435A60CD
:102AD000B9E762681D4E012A33681AD113F4003F2A
:102AE000A5D0736841F2883823F003031343736061
:102AF000FFF716FC07467368626803F00C03B3EB3C
:102B0000820FA2D0FFF70CFCC01B4045F3D9032075
:102B10008EE7022A02D113F0007FE1E713F0020FE3
:102B2000DEE7136823F007032B431360136803F0F9
:102B30000703AB427FF47BAF8DE76B68E16823F45A
:102B4000E0630B436B608BE7002002400010024003
:102B5000E4AC00080000002008000020044B054AF7
:102B60005B68C3F30223D35C034A1068D840704704
:102B700000100240F4AC000800000020044B054A9D
:102B80005B68C3F3C223D35C034A1068D840704724
:102B900000100240F4AC000800000020036A026A42
:102BA00070B522F001020262446882690D6822F069
:102BB00073022A438D6823F002032B430A4DA84277
:102BC0000BD1CD6823F008032B4324F44074D1E9E2
:102BD0000556354323F004032C43446082614A6860
:102BE0004263036270BD00BF002C0140036A026AA9
:102BF00070B522F4807202624468C2690D6822F0E6
:102C000073022A438D6823F4007343EA05230B4DB6
:102C1000A8420DD1CD6823F4006343EA052324F4D0
:102C20004054D1E90556354323F4806344EA051442
:102C30004460C2614A68C263036270BD002C0140F7
:102C4000036A026A30B522F4805202624468C269A3
:102C50000D6822F4E64242EA05228D6823F400530F
:102C600043EA0533064DA84202BF4D6924F480446F
:102C700044EA85144460C2614A680264036230BD5C
:102C8000002C01407047704770477047704770478D
:102C9000704770477047704790F83D30012B1CD14A
:102CA00002230F4A80F83D30036893420AD0B3F103
:102CB000804F07D0A2F59432934203D002F5806290
:102CC000934204D19A6802F00702062A03D01A68D8
:102CD00042F001021A60002070470120704700BFD7
:102CE000002C0140036810B51A69044691070FD5FE
:102CF000DA6892070CD56FF002021A61012202779E
:102D00009B699B077FD0D0F89030984700232377AA
:102D100023681A69500711D5DA6851070ED56FF08C
:102D200004021A61022222779B6913F4407F71D05A
:102D3000D4F89030204698470023237723681A69F7
:102D4000120710D5DA6810070DD56FF008021A6166
:102D500004222277DB69990763D0D4F890302046AB
:102D600098470023237723681A69D20611D5DA68B9
:102D7000D0060ED56FF010021A6108222277DB69A7
:102D800013F4407F54D0D4F8903020469847002365
:102D9000237723681A69D10709D5DA68D20706D5DF
:102DA0006FF0010220461A61D4F8803098472368FA
:102DB0001A69100609D5DA68110606D56FF0800287
:102DC00020461A61D4F8B030984723681A69520631
:102DD00009D5DA68500606D56FF0400220461A6120
:102DE000D4F88830984723681A69910627D5DA689D
:102DF000920624D56FF0200220461A61D4F8A8303C
:102E0000BDE810401847D0F8983098472046D4F8CD
:102E10009C307AE7D4F8983020469847D4F89C3014
:102E200088E7D4F8983020469847D4F89C3096E745
:102E3000D4F8983020469847D4F89C30A5E710BDC8
:102E40001A4A036890420AD0B0F1804F07D0A2F529
:102E50009432904203D002F58062904215D14A68C4
:102E600023F070031343114A90420AD0B0F1804F0F
:102E700007D0A2F59432904203D002F580629042CE
:102E800003D1CA6823F4407313434A6923F08003D3
:102E9000134303608B68C3620B688362034B9842E1
:102EA00004BF0B690363012343617047002C014099
:102EB000036A026A70B522F01002026244688269F5
:102EC0000D6822F4E64242EA05228D6823F02003D1
:102ED00043EA05130B4DA8420DD1CD6823F08003C2
:102EE00043EA051324F44064D1E90556354323F041
:102EF000400344EA8504446082614A688263036255
:102F000070BD00BF002C014070B590F83C30054604
:102F1000012B50D00123082A80F83C303BD007D841
:102F2000C2B1042A27D01846002385F83C3070BD72
:102F30000C2AF8D10068FFF783FEC3690A6943F4DD
:102F40000063C361C36923F48063C361C36943EA57
:102F500002232EE00068FFF721FE83690A6943F02F
:102F600008038361836923F0040383618369134346
:102F700083610020D8E70068FFF79AFF83690A6938
:102F800043F400638361836923F48063836183690D
:102F900043EA0223ECE70068FFF728FEC3690A69E9
:102FA00043F00803C361C36923F00403C361C36929
:102FB0001343C361DDE70220B9E710B584680A4313
:102FC00024F47F4442EA03222243826010BD38B5D4
:102FD00090F83C300446012B4FF0020000F08E8048
:102FE000012284F83D00206884F83C20836823F4A3
:102FF0007F4323F0770383600B68602B4FD032D878
:10300000402B64D016D8202B0DD00AD833F01001F5
:1030100009D0012384F83D30002384F83C30104669
:1030200038BD302BF5D1826822F07002134343F093
:10303000070328E0502BECD14A68CD68016A036A87
:1030400021F00A0123F00103036283690A4323F09C
:10305000F00343EA051383610262836823F070037F
:1030600043F057030FE0B3F5805F0DD0B3F5005F79
:103070000CD0702BCDD1CB68D1E90121FFF79DFF9A
:10308000836843F0770383600022C2E7CB68D1E90D
:103090000121FFF792FF836843F48043F3E7036A5B
:1030A000026A4D6822F01002C9680262826923F048
:1030B000A00322F4704243EA051342EA013282611E
:1030C0000362836823F0700343F06703DBE74A6819
:1030D000CD68016A036A21F00A0123F0010303624B
:1030E00083690A4323F0F00343EA05138361026214
:1030F000836823F0700343F04703C4E702468EE77A
:1031000010B50124036A01F01F018C4023EA040377
:103110000362036A8A401A43026210BD08B529B9E6
:1031200090F83E30012B21D0012008BD042907D1A1
:1031300090F83F30012BF7D1022380F83F3018E0A0
:10314000082907D190F84030012BEDD1022380F8F7
:1031500040300EE090F84130012BE5D10429EBD04E
:103160000829F3D0022380F8413002E0022380F8DE
:103170003E3000680122FFF7C3FF0E4B98420AD190
:10318000436C43F400434364836803F00703062B56
:103190000BD10020C9E7B0F1804FF5D0064B984223
:1031A000F2D003F580639842EED0036843F0010348
:1031B0000360EEE7002C014000040040FFF7AEBFC3
:1031C000134BC0F88030134BC0F88430124BC0F85A
:1031D0008830124BC0F88C30114BC0F89030114B36
:1031E000C0F89430104BC0F89830104BC0F89C30A9
:1031F0000F4BC0F8A0300F4BC0F8A4300E4BC0F8F6
:10320000A8300E4BC0F8AC300D4BC0F8B030704752
:103210001D1D0008872C0008932C0008952C000821
:103220008B2C00088D2C0008892C00088F2C00089E
:10323000912C0008972C0008793300087B33000894
:103240007D33000810B5044668B390F83D3003F0B4
:10325000FF0253B980F83C20FFF7B2FF836C0BB933
:10326000124B83642046A36C98470223206884F89D
:103270003D30211DFFF7E4FD0123002084F8463096
:1032800084F83E3084F83F3084F8403084F8413090
:1032900084F8423084F8433084F8443084F8453070
:1032A00084F83D3010BD0120FCE700BFDD1E0008A2
:1032B00010B5044668B390F83D3003F0FF0253B9EF
:1032C00080F83C20FFF77CFF036E0BB9124B0366BE
:1032D0002046236E98470223206884F83D30211D44
:1032E000FFF7AEFD0123002084F8463084F83E301D
:1032F00084F83F3084F8403084F8413084F842301C
:1033000084F8433084F8443084F8453084F83D3004
:1033100010BD0120FCE700BF852C000830B590F8F7
:103320003C300246012B4FF0020022D0136882F895
:103330003D005C680D6824F070042C4398685C6064
:103340000C4CA3420AD0B3F1804F07D0A4F59434BB
:10335000A34203D004F58064A34204D1496820F05D
:103360008000014399600123002082F83D3082F8FB
:103370003C0030BD002C01407047704770477047DB
:10338000026802F10C0353E8003F23F490730C32FF
:1033900042E8003102680029F2D102F1140353E837
:1033A000003F23F0010302F1140C4CE80031002926
:1033B000F3D1036B012B0BD102F10C0353E8003F57
:1033C00023F0100302F10C0C4CE800310029F3D17A
:1033D000202380F842300023036370470023406AB3
:1033E000C385C384836D184710B504460368C1685C
:1033F0001A6922F440520A431A6182680069D96846
:103400000243606921F4B05121F00C0102430A43E8
:10341000DA605A69A16922F440720A435A610E4A7D
:10342000934215D1FFF7AAFB192343436268206832
:103430009200B3FBF2F36422B3FBF2F102FB11330F
:103440001B013233B3FBF2F303EB0113836010BDB6
:10345000FFF784FBE8E700BF00380140F8B50446F9
:103460000E4617461D462268136836EA030301D14B
:10347000002028E06B1CF7D025B1FEF751FFC01BE0
:103480008542F0D2226802F10C0353E8003F23F496
:10349000D0730C3242E8003021680028F2D101F1EB
:1034A000140353E8003F23F0010301F1140040E846
:1034B0000032002AF3D12023032084F8413084F81D
:1034C000402084F84230F8BD90F8423082B0222B80
:1034D00053D18168836AB1F5805F02683DD101698B
:1034E00000293DD15268C2F3080223F8022B8362FF
:1034F000C38D013B9BB2C385002B3ED10268D168CE
:1035000021F02001D160D16821F48071D16051692E
:1035100021F001015161202280F842204363026BB7
:10352000012A026826D1036302F10C0353E8003F2D
:1035300023F0100302F10C0C4CE800310029F3D108
:103540001368DB0605D50191136801935368019355
:10355000019BC36E818D02B0184739B9016929B941
:103560005268D2B21A70836A0133C0E7526802F01F
:103570007F02F7E7436D02B0184702B0704770470B
:103580007047704770477047704770472DE9F843A0
:10359000994690F841300446202B0E4617463CD100
:1035A00000293CD0002A3AD021230025456480F828
:1035B0004130FEF7B5FEA3688046B3F5805FA7846F
:1035C000E78403D123690BB935461E46E38C9BB2D1
:1035D00053B94B46424640212046FFF73FFF50B9C2
:1035E000202384F8413007E04B46424680212046A4
:1035F000FFF734FF10B10320BDE8F88322684EB90D
:1036000035F8023BC3F308035360E18C013989B2FA
:10361000E184DBE716F8013BF6E70220ECE7012046
:10362000EAE72DE9F8431F4690F842300446202B84
:103630000E46914643D1002943D0002A41D022238F
:103640000025456480F842300563FEF769FEA368F3
:103650008046B3F5805FA4F82C90A4F82E9003D197
:1036600023690BB935461E46E08D80B220B9202370
:1036700084F84230BDE8F8833B464246202120468C
:10368000FFF7ECFEF8B923684EB95B68C3F3080393
:1036900025F8023BE38D013B9BB2E385E4E7A2689A
:1036A000B2F5805F02D032B9226922B95968C9B235
:1036B00006F8011BEEE7596801F07F01F8E70220E8
:1036C000D8E70120D6E70320D4E70000036873B5EC
:1036D0001A6804461607D9685D6908D196066AD546
:1036E0008D0668D502B0BDE87040FFF7EDBE05F06D
:1036F000010001F4907505435DD0D60705D5CD05D1
:1037000042BF636C43F001036364530704D518B1EF
:10371000636C43F002036364960704D518B1636CCD
:1037200043F004036364150707D501F02003034346
:103730001EBF636C43F008036364636C002B38D0D6
:10374000920604D58B0602D52046FFF7BDFE2668FB
:103750007369626C03F0400302F0080253EA020549
:1037600023D02046FFF70CFE73695E061BD5226846
:1037700002F1140353E8003F23F04003143242E8FF
:1037800000310029F3D1E06B50B1754B4363FEF774
:103790005FFE70B1E06B436B02B0BDE8704018474C
:1037A000A36D2046F8E7A36DF6E72046A36D984782
:1037B000656402B070BD206B012840F09780D5068B
:1037C00040F19480C80640F19180002201921A686D
:1037D00001925A680192019A5A6952064FD5E16BDB
:1037E0000A68526892B2002AE3D0A08D9042E0D9D4
:1037F000E2858A69202A36D003F10C0252E8002FB4
:1038000022F4807203F10C0040E800210029F3D17A
:1038100003F1140252E8002F22F0010203F1140018
:1038200040E800210029F3D103F1140252E8002FEF
:1038300022F0400203F1140040E800210029F3D1F6
:10384000202284F84220216303F10C0252E8002F69
:1038500022F0100203F10C0040E800210029F3D10E
:10386000E06BFEF7D5FD02236363E38DA18DC91ADA
:10387000E36E89B2204602B0BDE870401847E28D81
:10388000E08DA18D80B292B2002892D0891A89B2BF
:1038900000298ED003F10C0252E8002F22F490721E
:1038A00003F10C0545E800200028F3D103F11402D0
:1038B00052E8002F22F0010203F1140545E8002030
:1038C0000028F3D1202284F84220206303F10C0267
:1038D00052E8002F22F0100203F10C0545E8002009
:1038E0000028F3D102236363E36EC3E7160628D5ED
:1038F0000D0626D594F84120212A7FF45AAFA168FD
:10390000226AB1F5805F17D12169A9B932F8021B8B
:10391000C1F3080159602262E28C013A92B2E2845A
:10392000002A7FF446AFDA6822F08002DA60DA68B3
:1039300042F04002DA603CE7511C216212785A6082
:10394000EAE750067FF535AF4A067FF532AFDA6811
:1039500022F04002DA60202384F84130E36C20E753
:10396000DD330008094B8364094BC364094B0365CD
:10397000094B4365094B8365094BC365094B0366D6
:10398000094B4366094BC366704700BF8335000887
:103990008135000885350008311D0008873500088D
:1039A000893500088B3500087F3500087F33000813
:1039B00010B50446002830D090F8413003F0FF02E3
:1039C00053B980F84020FFF7CDFF036F0BB9144BBC
:1039D00003672046236F98472423226884F84130E8
:1039E000D368204623F40053D360FFF7FDFC23681F
:1039F00000201A6922F490421A615A6922F02A02C0
:103A00005A61DA6842F40052DA602023606484F874
:103A1000413084F84230606310BD0120FCE700BFF4
:103A2000052100080023C2854364222382850269A0
:103A300080F84230816203681AB1DA6842F4807219
:103A4000DA605A69002042F001025A61DA6842F0F5
:103A50002002DA60704770B490F84260202E06D1E0
:103A600041B13AB10024046370BCFFF7DBBF022010
:103A700070BC70470120FBE738B50B880C46052B5E
:103A80002ED140F2CE71B0F8032052BA92B2531E3A
:103A90009BB28B4224D80023B0F80110238001236D
:103AA00003702388C2F3C7050133238053071CBF6B
:103AB0000135EDB24570238849BA013301312380C5
:103AC00089B20023023000F089FC034618B1BDE83A
:103AD000384000F083B9228815442580184638BD47
:103AE0000323FBE70B8813B5052B20D10479F4B928
:103AF000C3785A1ED2B2FD2A19D9A3F1FF0253424C
:103B000053418DF804300123B0F801101A4649BA28
:103B1000013189B201A88DF8054000F05FFC034631
:103B200010B100F05BF90346184602B010BD032344
:103B3000FAE738B50B880D46052B25D9B0F80310E8
:103B400049BAC1F3C7038AB2490718BF013302F16A
:103B5000FF3118BFDBB2B1F5F66F15D2417999424A
:103B600012D1B0F80140012364BA0134A1B2063089
:103B700000F034FC034618B1BDE8384000F02EB91F
:103B800005222A80184638BD0323FBE738B50B8889
:103B90000C46052B2DD140F2CE71B0F8032052BA5D
:103BA00092B2531E9BB28B4223D80023B0F801106F
:103BB0002380022303702388C2F3C70501332380C7
:103BC00053071CBF0135EDB24570238849BA013354
:103BD0000131238089B2023000F002FC034618B1A3
:103BE000BDE8384000F0FAB8228815442580184610
:103BF00038BD0323FBE708B50B88052B0FD1012344
:103C0000B0F801101A4649BA013189B2033000F008
:103C1000A9FB034620B1BDE8084000F0DFB803234C
:103C2000184608BD38B50B880D46052B1ED9B0F8CF
:103C3000032052BA92B2531E772B17D84179530002
:103C4000DBB2994212D1B0F80140012364BA0134C9
:103C5000A1B2063000F086FB034618B1BDE838403B
:103C600000F0BCB805222A80184638BD0323FBE7C4
:103C70000B8870B5052B0C4625D1B0F8032052BA3D
:103C800092B2531E7C2B1ED800230325B0F80110DE
:103C900023800570258849BA013525805500457077
:103CA000268801310136268089B2023000F05AFBA5
:103CB000034618B1BDE8704000F090B82288154462
:103CC0002580184670BD0323FBE70B882DE9F041E2
:103CD000092B04460D4639D9B0F8036076BAB6B25E
:103CE000731E7C2B34D8B0F8072052BA92B2531E00
:103CF000782B2DD8437AB3EB420F29D1B0F80510B9
:103D0000B0F8017049BA0131012389B20A3000F0DC
:103D100029FBF8B91723288023702B884FEA46081F
:103D200001332B8084F801802B8879BA013301316B
:103D30002B803246034689B2A01C00F013FB48B921
:103D40002B889844A5F80080BDE8F0810020FBE7AF
:103D50000320F9E7BDE8F04100F040B838B50B8822
:103D60000C46052B25D1B0F8032052BA92B2531E4F
:103D70007B2B1ED80023B0F801102380042303708E
:103D800023885500013323804570238849BA0133C5
:103D90000131238089B2023000F0E2FA034618B103
:103DA000BDE8384000F01AB822881544258018462E
:103DB00038BD0323FBE7000038B50D46054B064927
:103DC0001C8801302246013403F0BBFC00202C800B
:103DD00038BD00BF800600206006002007289ABF7B
:103DE000014B185C042070470EAD000838B504463E
:103DF000084611461A46431EDBB2F62B02D90224AE
:103E0000204638BD154B1870002CF8D1144B154DB9
:103E10001D60154B154D1D60154B164D1D60164B45
:103E2000164D1D60164B1C60164B174C1C60174B33
:103E3000174C1C60174B184C1C609DF8103000F09C
:103E4000CBF804460028DBD100F0EEF918B10122CE
:103E5000124B1A70D4E70324D2E700BFA506002056
:103E60009006002019400008940600203D400008FC
:103E700088060020A9400008840600205940000858
:103E80008C06002098060020294100089C0600208E
:103E900099410008A0060020FD4100080C00002008
:103EA00010B5064C2378012B05D1054B1B689847AC
:103EB0000020207010BD0620FCE700BF0C00002091
:103EC00090060020F7B52F4B1C78002C58D10DF12F
:103ED000070000F0BDF928B19DF80730022B04D08F
:103EE000042B17D0204603B0F0BD274D274B2846A2
:103EF0001B68274A274998470028F3D1264A2B7880
:103F000012789A4201D0002BECD1042000F094F9F1
:103F10000024E7E70123214E1E4D33702346286815
:103F20001F4F01781F4A397012F833C0BCF1000FDF
:103F300007D0614520D102EBC3025368144998476A
:103F40003070114B1B78002BCCD03178104B59B10D
:103F500001263A78286862F07F021E8002701A8873
:103F6000286896191E8081540F4A296816681A8895
:103F7000094B1878B047B5E70133102BD4D1E0E7EF
:103F80000624AFE70C000020AC06002084060020C9
:103F9000AE060020A8060020A5060020820600200C
:103FA000A40600201000002088060020FF2370B522
:103FB0001C46074D074E0144814202D143EA0420CA
:103FC00070BD10F8012B5A40AB5C6340B45CF3E762
:103FD00016AD000816AE000810B5084614460122BA
:103FE00082F310880822214600F056F958B1B4F542
:103FF000964F9DBF07486400B0FBF4F0232080B2C9
:1040000000F078F920B90320002383F3108810BD55
:104010000020F9E7A07F1700012010B580F3108879
:104020000024054B21461C7000F020F900F064F9D3
:1040300084F3108810BD00BFB006002008B501232E
:1040400083F310880021084600F010F900F066F9AB
:10405000002383F3108808BD2DE9F0410123804639
:104060000D46164683F310880D4F3B889BB2032BF9
:1040700005D80520002383F31088BDE8F081398836
:10408000084C89B22046FFF791FF0028F1D114F8BF
:10409000012B88F800203A88033A32802C60E9E747
:1040A000B8070020B806002038B50346012080F389
:1040B0001088184800780128C5B229D1164C481E2E
:1040C0002060164C258001F8013C23881A4492B2E6
:1040D0002280218889B2FFF769FF238810499BB2AB
:1040E0005A1C92B22280C2B2CA542388C0F307205D
:1040F0009BB25A1C92B22280C8540A4B0020294617
:104100001D7000F0B3F80020002383F3108838BD41
:104110000520F9E7B0060020B4060020BA07002009
:10412000B8060020B106002007B50DF1070000F029
:10413000C7F8164A1378032B22D8DFE803F01F02D2
:10414000111F002312490B800B889BB2581C80B2B0
:1041500008809DF807000F49C854022313700DE032
:104160000B490B889BB2FF2B0ED80B889BB25A1CB5
:1041700092B20A809DF80710064AD15400F0BCF8AC
:10418000002003B05DF804FB0323E7E7B00600203E
:10419000B8070020B8060020F8B5154F3B7803F0AB
:1041A000FF0623B1012E07D000242046F8BD31467A
:1041B000012000F05BF8F7E70E4C2588ADB265B141
:1041C0000D4D2B68187800F069F82B6801332B60CF
:1041D0002388013B9BB22380E6E7082000F02CF8FF
:1041E00029460446304600F041F83D70DDE700BF47
:1041F000B1060020BA070020B406002038B5094DEA
:104200002B7803F0FF0043B1022807D0002400F010
:1042100085F8012320462B7038BD012000F00CF8F2
:104220000446F4E7B00600200022024B01201A7079
:10423000704700BFBD0700200123034A1370034AE3
:1042400010701846704700BFBD070020BC07002053
:10425000044A0346107820B10349097819700023F5
:1042600013707047BD070020BC070020094B1B6876
:10427000DA6840B142F02002DA60DA6831B142F027
:104280008002DA60704722F02002F5E722F0800217
:10429000F7E700BF6C05002001207047012307B538
:1042A0001A468DF807000DF107010448FFF76EF973
:1042B000B0FA80F0400903B05DF804FB6C05002003
:1042C00008B5012301461A460348FFF7AAF9B0FAD8
:1042D00080F0400908BD00BF6C050020014B1B6841
:1042E000184700BF9C060020014B1B68184700BF01
:1042F00098060020012070476FF00102064B1B68F2
:104300001A61DA6842F00102DA6000225A621A6821
:1043100042F001021A6070474004002041F211127D
:104320000B4B1B68196A114208D140F24442196ACA
:10433000114202BF1A6822F001021A6000225A627A
:10434000DA6822F00102DA606FF001021A61704748
:1043500040040020014B1B68184700BFA006002046
:1043600000207047013989B230B58C18642C2FDCDD
:10437000184C2488091B89B2ABB1012B1AD10A440D
:10438000154C92B2914200F1020013D010F8023C99
:104390001B0224F8113010F8015C2B4324F8113073
:1043A000013189B2EEE70A440B4C92B2914200F11E
:1043B000020001D100200CE034F811301B0A00F893
:1043C000023C34F81130013100F8013C89B2EDE7CC
:1043D000012030BD86080020BE0700200020704765
:1043E00000207047EFF3058313B16FF005007047AD
:1043F000EFF31083002BF8D1074B1868022806D181
:10440000EFF31183002BF0D14FF0FF3070470028FD
:10441000FAD101221A607047E40A002010B5EFF3C8
:10442000058313B16FF0050010BDEFF31084002C6D
:10443000F8D1094B1A68022A06D1EFF31183002B39
:10444000F0D14FF0FF30EFE7012AFAD102221A60D3
:1044500000F098FD2046E7E7E40A0020F0B5144696
:10446000002287B00B460592EFF3058252BBEFF3B3
:1044700010823ABB264A1268022A02D1EFF3118257
:1044800002BBF8B100228DF81320002C30D0216837
:1044900009B90DF11301A569002D08BF18256A1E81
:1044A000372AAC462AD86268D20727D4666966B133
:1044B000B208D4E9027E57B1BEF15B0F02D924697C
:1044C00004B1EEB9059807B0F0BD8022F1E7BEF166
:1044D000000FF7D12469002CF4D105ACCDE900C45C
:1044E00092B200F021FD01281CBF00230593E9E7EB
:1044F0004FF0180C80220DF11301EEE70020E2E7E7
:10450000CDE90147009500F0D8FC0590DAE700BF3F
:10451000E40A002008B5EFF3058313B16FF005003E
:1045200008BDEFF31083002BF8D1074B1B68022B5B
:1045300003D1EFF31183002BF0D10028F0D000F06D
:1045400079FE0020ECE700BFE40A0020034B036083
:10455000034B0B6080231360704700BF880A002064
:1045600088080020034B0360034B0B604FF48073FB
:1045700013607047E80E0020E80A00204FF0FF3279
:1045800000F10803C0E902234360036100230360D4
:10459000704700230361704743689A684B608A60E4
:1045A0009A6851609960036808610133036070473D
:1045B00030B50C68631C0AD103695A684A6091607F
:1045C0008B605960036808610133036030BD00F1FE
:1045D0000802134652681568A542FAD9EDE7036947
:1045E000D0E901128A6051605968814208BF5A605F
:1045F000002202611A68013A1A601868704710B503
:10460000044601F0C7F9A46B01F0E4F9B4FA84F0B0
:10461000400910BDF8B51546026C0446866B52B9C8
:10462000076847BB406800F03DFF054667600136FC
:104630002846A663F8BD65B9806803F082F8A368D0
:10464000226C13446268A3609342F0D32368A36092
:10465000EDE7C06803F075F8226CE36851429B1ADD
:104660002268E36093423EBF63685B18E360022DFB
:1046700001D116B1013E0025D9E73546D7E70346FB
:104680001A6C084610B462B1DC68596814448C4254
:1046900028BF1968DC6028BFD960D96810BC03F056
:1046A00050B810BC704770B5044601F073F994F827
:1046B000455004F124066DB2002D14DCFF2384F86C
:1046C000453001F087F901F065F994F8445004F1A0
:1046D00010066DB2002D12DCFF2384F84430BDE8D3
:1046E000704001F077B9636A002BE7D0304600F0E4
:1046F0003BFE08B100F0C0FE013D6DB2DCE723696E
:10470000002BE9D0304600F02FFE08B100F0B4FED7
:10471000013D6DB2DEE738B50D46044640B94FF0B5
:10472000500383F31188BFF36F8FBFF34F8FFEE702
:1047300001F030F9D4E90F314B432268D0185B1AED
:104740006060A26000201A44FF23A063E26084F846
:10475000443084F84530A5B9236973B104F11000E1
:1047600000F002FE48B14FF0E0234FF08052C3F852
:10477000042DBFF34F8FBFF36F8F01F02BF9012092
:1047800038BD04F11000FFF7F9FE04F12400FFF733
:10479000F5FEF2E737B50D461C4640B94FF0500321
:1047A00083F31188BFF36F8FBFF34F8FFEE743B9D9
:1047B0004FF0500383F31188BFF36F8FBFF34F8F18
:1047C000FEE74AB191B94FF0500383F31188BFF36C
:1047D0006F8FBFF34F8FFEE741B14FF0500383F36C
:1047E0001188BFF36F8FBFF34F8FFEE75023019304
:1047F000019B502B08D04FF0500383F31188BFF377
:104800006F8FBFF34F8FFEE70121002D08BF2246B7
:10481000C4E90F0584F8461020462260FFF77BFFAD
:1048200020469DF8183084F84C3003B030BD2DE997
:10483000F04385B088461F460446019240B94FF0C8
:10484000500383F31188BFF36F8FBFF34F8FFEE7E1
:1048500051B9036C43B14FF0500383F31188BFF398
:104860006F8FBFF34F8FFEE7022F0BD1E36B012B4E
:1048700008D04FF0500383F31188BFF36F8FBFF35D
:104880004F8FFEE700F0FEFD064650B9019B4BB18D
:104890004FF0500383F31188BFF36F8FBFF34F8F37
:1048A000FEE700264FF0000937E0019D1DB901F039
:1048B00091F8002052E016B902A800F095FD01F031
:1048C00089F800F0A5FB01F065F894F84430FF2B5F
:1048D00008BF84F8449094F84530FF2B08BF84F853
:1048E000459001F077F801A902A800F089FD0028A1
:1048F0004AD101F04FF8A26BE36B9A4231D101F03B
:1049000069F8019904F1100000F0F4FC2046FFF76B
:10491000CAFE00F01BFC60B3012601F03BF8A26B5D
:10492000E36B9A4201D3022FBFD13A46414620465B
:10493000FFF770FE636A1BB104F1240000F014FD60
:1049400048B14FF0E0234FF08052C3F8042DBFF37D
:104950004F8FBFF36F8F01F03DF8012005B0BDE828
:10496000F08301F037F82046FFF79DFE00F0EEFBE4
:10497000D2E74FF0E0234FF08052C3F8042DBFF38D
:104980004F8FBFF36F8FC7E72046FFF78CFE00F015
:10499000DDFB8EE72DE9F843894690461F46044625
:1049A00040B94FF0500383F31188BFF36F8FBFF30B
:1049B0004F8FFEE751B9036C43B14FF0500383F3BF
:1049C0001188BFF36F8FBFF34F8FFEE7022F0BD11C
:1049D000E36B012B08D04FF0500383F31188BFF332
:1049E0006F8FBFF34F8FFEE701F0B0F8EFF3118642
:1049F0004FF0500383F31188BFF36F8FBFF34F8FD6
:104A0000A26BE36B9A4201D3022F22D194F8455056
:104A10003A46494620466DB2FFF7FCFD6B1C13D1A8
:104A2000636A0BB901200BE004F1240000F09CFC48
:104A30000028F7D0B8F1000FF4D00120C8F800002A
:104A400086F31188BDE8F88301356DB284F84550CE
:104A5000E8E70020F4E72DE9FF410F460446019204
:104A600040B94FF0500383F31188BFF36F8FBFF34A
:104A70004F8FFEE751B9036C43B14FF0500383F3FE
:104A80001188BFF36F8FBFF34F8FFEE700F0FAFC82
:104A9000064650B9019B4BB14FF0500383F3118888
:104AA000BFF36F8FBFF34F8FFEE700264FF0000874
:104AB0003DE0019D1DB900F08DFF002056E016B9C4
:104AC00002A800F091FC00F085FF00F0A1FA00F0D0
:104AD00061FF94F84430FF2B08BF84F8448094F8B9
:104AE0004530FF2B08BF84F8458000F073FF01A913
:104AF00002A800F085FC002841D12046FFF77FFD89
:104B0000B8B3019904F1240000F0F4FB2046FFF74C
:104B1000CAFD00F01BFB48B94FF0E0234FF0805274
:104B2000C3F8042DBFF34F8FBFF36F8F012600F042
:104B300031FFA56B002DBCD039462046013DFFF763
:104B40009EFDA563236973B104F1100000F00CFC15
:104B500048B14FF0E0234FF08052C3F8042DBFF36B
:104B60004F8FBFF36F8F00F035FF012004B0BDE819
:104B7000F0812046FFF797FD00F0E8FAD6E72046DF
:104B8000FFF791FD00F0E2FA2046FFF738FD00281C
:104B9000CCD092E7002310B5064A52F833402CB926
:104BA00042F8331002EBC302506010BD0133082BF2
:104BB000F3D1FAE7440F002070B504460D461646BF
:104BC00000F0E8FE94F84430FF2B04BF002384F883
:104BD000443094F84530FF2B04BF002384F845305F
:104BE00000F0F8FEA36B2BB93246294604F12400ED
:104BF00000F09AFB2046BDE87040FFF754BD00006E
:104C00002DE9F041044600F0C5FE304B304E1A68E5
:104C1000304F01321A603568002D4BD134601B686B
:104C2000012B1FD1B84640460135FFF7A7FC382DB0
:104C300008F11408F7D1DFF8A080284D4046FFF7AF
:104C40009DFC2846FFF79AFC2548FFF797FC25486E
:104C5000FFF794FC2448FFF791FC244BC3F8008035
:104C6000234B1D601420234A136801331360224A2A
:104C700063641168E36A8B4200FB037004F1040172
:104C800088BF1360FFF788FC00F0A4FE1B4B1B6875
:104C900073B13368DA6AE36A9A4209D24FF0E023CB
:104CA0004FF08052C3F8042DBFF34F8FBFF36F8FC7
:104CB000BDE8F081114B1A68E36A002AD2D132684C
:104CC000D26A9A4298BF3460CCE700BFF01300204C
:104CD000840F0020900F0020081400201C140020D6
:104CE000381400206414002050140020880F002085
:104CF0008C0F002000140020041400204C1400200D
:104D0000F8B50646144B154D1C6828680F4604304C
:104D1000FFF765FC731C07D137B1296810480431CF
:104D2000BDE8F840FFF738BC2B68A4195C6007D3D6
:104D30000C4B18682968BDE8F8400431FFF738BC0F
:104D4000094B186829680431FFF732FC074B1A68D1
:104D5000A24288BF1C60F8BD78140020840F002098
:104D6000501400208C0F0020880F002030140020E9
:104D7000064A13681968064B19B94FF0FF321A60DA
:104D800070471268D268D2685268F8E7880F00202E
:104D90003014002010B590F8593004463BB9006B30
:104DA00000F0BAFF2046BDE8104000F0B5BF012B6F
:104DB000F9D0022B08D04FF0500383F31188BFF3D2
:104DC0006F8FBFF34F8FFEE710BD000080B5134C0F
:104DD000134F144D236873B9134B1B68012BF8D97B
:104DE0004FF0E0234FF08052C3F8042DBFF34F8FF4
:104DF000BFF36F8FEDE700F0CDFDFB68DE68301D7F
:104E0000FFF7EDFB2B68013B2B602368013B236020
:104E100000F0E0FD3046FFF7BDFFDBE7F4130020B4
:104E200064140020F0130020900F00202DE9F047BB
:104E30000D46DDE909844FEA82094A460646A52166
:104E4000206B1F4602F0E0FB236BA9F104094B44E1
:104E500023F0070904F133026B1E0F3513F8011F0D
:104E600002F8011F09B1AB42F8D1089D4FF0000ACA
:104E7000372D28BF3725201DC4E9135AE56284F871
:104E800043A0FFF786FBC5F1380504F11800FFF7D2
:104E900080FBC4F854A03A46314648462461A561D7
:104EA000646284F858A000F04FFD2060B8F1000F54
:104EB00001D0C8F80040BDE8F08770B586B0DDE9E4
:104EC0000B5445B94FF0500383F31188BFF36F8F34
:104ED000BFF34F8FFEE744B94FF0500383F31188BF
:104EE000BFF36F8FBFF34F8FFEE75C260596059EDD
:104EF0005C2E08D04FF0500383F31188BFF36F8FFF
:104F0000BFF34F8FFEE72563022584F8595004ADA7
:104F100001950A9D02940095FFF788FF2046FFF750
:104F20006FFE049806B070BD2DE9F043074685B0CA
:104F3000900088461646994600F05CFE0546E8B1AA
:104F40005C2000F057FE0446A8B1002380F85930D9
:104F50000D9B056301930C9B3246414602900093E2
:104F600038464B46FFF762FF2046FFF749FE012017
:104F700005B0BDE8F083284600F0CEFE4FF0FF30CC
:104F8000F6E7000010B5002488B007AA06A905A816
:104F9000CDE90544FFF7DAFA059B079A0293069BD1
:104FA0001649CDE9004316482346FFF786FF18B39C
:104FB00000F00CFB012814D14FF0500383F311884B
:104FC000BFF36F8FBFF34F8F4FF0FF320D4B1A605F
:104FD0000D4B18600D4B1C6008B0BDE8104000F090
:104FE00059BD013008D14FF0500383F31188BFF34E
:104FF0006F8FBFF34F8FFEE708B010BD16AF0008EC
:10500000CD4D0008301400204C14002078140020EE
:10501000024A136801331360704700BFFC1300207D
:10502000014B1868704700BF781400202DE9F84F35
:105030003B4B1B68002B6DD13A4B1D6801351D6041
:10504000BDB9394B1A68126842B14FF0500383F36F
:105050001188BFF36F8FBFF34F8FFEE7334A196894
:10506000106818601160324A136801331360FFF74B
:105070007FFE304E002433682F4FAB4210D91422EC
:105080002E4B1B68DB6A5343FB58022B28BF0124BD
:105090002B4B1B68002B0CBF20460120BDE8F88F6E
:1050A000DFF88490DFF89CA0D9F800301B681BB9AA
:1050B0004FF0FF333360E2E7D9F80030DB68D3F814
:1050C0000CB0DBF80420954201D23260D7E70BF137
:1050D00004084046FFF783FADBF828201AB10BF1E9
:1050E0001800FFF77CFA1423DBF82C00DAF8002014
:1050F0004146904288BFCAF8000003FB0070FFF7EA
:105100004BFA0E4BDBF82C201968CB6A9A4228BF69
:105110000124C9E70C4A0024136801331360B7E780
:10512000FC13002078140020880F00208C0F002032
:105130003414002030140020900F0020840F002031
:105140007C14002004140020F81300202DE9F04105
:10515000304C236843B94FF0500383F31188BFF3F9
:105160006F8FBFF34F8FFEE700F014FC2368013B05
:10517000236024682CB1002400F02CFC2046BDE8FC
:10518000F081254B1B68002BF5D0244D244EDFF811
:1051900094801DE0EB68DC68271D04F11800FFF720
:1051A0001EFA3846FFF71BFA1420E36A326800FB48
:1051B00003809342394688BF3360FFF7EDF91A4BFD
:1051C000E26A1B68DB6A9A4202D30122174B1A601B
:1051D0002B68002BDED10CB1FFF7CAFD144D2C68F3
:1051E00044B10127114EFFF721FF00B13760013CA8
:1051F000F9D12C600D4B1B68002BBCD04FF0E02385
:105200004FF08052C3F8042DBFF34F8FBFF36F8F61
:105210000124B1E7FC130020F01300203814002013
:1052200004140020900F0020840F00207C14002024
:10523000F813002008B550B94FF0E0234FF080522A
:10524000C3F8042DBFF34F8FBFF36F8F08BD0A4B18
:10525000196841B14FF0500383F31188BFF36F8F8A
:10526000BFF34F8FFEE7FFF7D3FEFFF749FDFFF7D0
:105270006DFF0028E0D0E9E7FC130020184B70B563
:105280001A68184B12B101221A6070BD1426164D0F
:105290001A602A68154906FB02F3CC58C81894B165
:1052A0004468083364680B449C4208BF63684460E8
:1052B00008BF4360142303FB02114B68D9680C4BF1
:1052C00019602A60E1E742B94FF0500383F3118877
:1052D000BFF36F8FBFF34F8FFEE7013ADBE700BFED
:1052E000FC1300207C14002004140020900F0020E8
:1052F000840F002010B50C4640B94FF0500383F3E3
:105300001188BFF36F8FBFF34F8FFEE7054B19680E
:105310001831FFF74DF92046BDE810400121FFF795
:10532000EFBC00BF840F002038B50D46144640B9CD
:105330004FF0500383F31188BFF36F8FBFF34F8F8C
:10534000FEE7084B19681831FFF726F9002C2146B3
:1053500008BF2846BDE8384018BF4FF0FF30FFF7C0
:10536000CFBC00BF840F002038B5C368DC6844B9E7
:105370004FF0500383F31188BFF36F8FBFF34F8F4C
:10538000FEE704F118052846FFF729F9104B1B68C2
:10539000DBB9251D2846FFF722F90E4A14201168B3
:1053A000E36A8B42294688BF13600B4A00FB032047
:1053B000FFF7F2F8094BE26A1B68DB6A9A4285BF85
:1053C0000120074B0020186038BD29460548EFE74B
:1053D000FC13002004140020900F0020840F0020F4
:1053E0007C14002038140020034B1B680360034B1F
:1053F0001B684360704700BF3414002078140020FD
:1054000070B50C46054640B94FF0500383F3118840
:10541000BFF36F8FBFF34F8FFEE741B94FF05003DB
:1054200083F31188BFF36F8FBFF34F8FFEE700F058
:10543000B1FA0F4B196823685A1C10D00D482E681A
:1054400000686A68864201D08A420FD9881A83426E
:105450000AD95B1A134428462360FFF7C5FF0024CE
:1054600000F0B8FA204670BD002323600124F7E75E
:1054700078140020341400200122014B1A60704778
:105480007C140020054B1B6833B1054B1868B0FA3B
:1054900080F0400940007047012070474C14002004
:1054A000FC13002038B508B9002038BD1B4B1C6820
:1054B000844208D04FF0500383F31188BFF36F8FFD
:1054C000BFF34F8FFEE7236D43B94FF0500383F3D3
:1054D0001188BFF36F8FBFF34F8FFEE7E16AE26C75
:1054E000013B91422365DFD0002BDDD1251D2846ED
:1054F000FFF775F81420E36CC3F13802A261084A83
:10550000E36211688B4288BF1360064A294600FB9C
:105510000320FFF741F80120C7E700BF840F0020F8
:1055200004140020900F0020F7B5114C00F032FA5F
:105530002568BDB90F4F104E3846FFF71FF83046AB
:10554000FFF71CF80D4B10211F600D4B0A201E6049
:105550000C4A0D4B0095FFF71DF9206010B10B4967
:10556000FFF718FB03B0BDE8F04000F033BA00BF0E
:10557000A4150020281500203C15002080140020D0
:105580008414002088140020541500201BAF00084C
:10559000914208B5416000610AD8D21A83699A42E3
:1055A0000DD2084B011D1868FFF702F8002008BD56
:1055B0009A4201D2994202D2034B011DF3E7012026
:1055C000F5E700BF841400208014002010B588B0D7
:1055D000FFF7AAFF124B1B68B3B1002407AA06A964
:1055E00005A8CDE90544FEF7BDFF059B079A029388
:1055F000069B0C49019302230B4800932346FFF7B7
:105600005CFC0A4B186040B94FF0500383F31188DB
:10561000BFF36F8FBFF34F8FFEE7012008B010BDBF
:10562000A415002020AF000831570008A81500205D
:105630007FB5164604461A4640B94FF0500383F32F
:105640001188BFF36F8FBFF34F8FFEE70D4D2868B2
:1056500080B10529CDE9001602940DDCFFF712FF99
:105660000023022818BF1A46694608BF089A28680E
:10567000FFF7DDF804B070BD00236946FFF78AF933
:10568000F8E700BFA41500202DE9F74F0646FFF705
:10569000C7FCDFF890800546D8F8003083420BD96C
:1056A0004FF00009204F3B681A686AB91F4A116819
:1056B00013603960012300E0002328463360C8F8F6
:1056C000005003B0BDE8F08FDB68DC68D3F800A0C1
:1056D00004F1040B5846FEF782FF636A20469847A0
:1056E000E369012BDFD1A36953449A4506D2594699
:1056F000386863602461FEF75BFFD4E700235246FD
:1057000019462046CDF80090FFF792FF0028CAD135
:105710004FF0500383F31188BFF36F8FBFF34F8FA8
:10572000FEE700BF501500208014002084140020E4
:105730002DE9F043694E6A4F89B033681D68002D2A
:1057400033D0DB68D3F80080FFF762FC04A8FFF7D2
:105750009BFF049C8146002C75D1002D58D04045FC
:105760005CD3FFF7F3FC3368DB68DD68281DFEF7C8
:1057700036FFEB69012B1AD1A96943464A462846F0
:105780004144FFF705FF90B1234642462146284693
:105790000094FFF74DFF50B94FF0500383F3118889
:1057A000BFF36F8FBFF34F8FFEE7A846CCE72846C5
:1057B0006B6A984700250022386804A9FFF74BF967
:1057C0000028BAD0049B0698002B3FDB069C636937
:1057D000002B42D103A8FFF757FF049B0246092B79
:1057E000E9D801A151F823F0635800086358000874
:1057F00063580008B7570008A7580008CB5800089E
:105800006358000863580008B7570008A7580008F5
:10581000344B1B681C68B4FA84F464092246386867
:10582000A8EB0901FFF7C8F9FFF790FC0028C1D1E8
:105830004FF0E0234FF08052C3F8042DBFF34F8F99
:10584000BFF36F8FB6E7FFF781FCB3E7059B0799BE
:105850009847049B002BAEDBB8E7201DFEF7BFFE88
:10586000B8E7A169059B20461944FFF791FE00287F
:10587000A1D0636A20469847E369012B9BD100239E
:10588000A269059920460A4400951946FFF7D0FE03
:10589000002890D14FF0500383F31188BFF36F8F2E
:1058A000BFF34F8FFEE70599A16141B94FF0500357
:1058B00083F31188BFF36F8FBFF34F8FFEE703466B
:1058C00001442046FFF764FE75E794F82C30002B66
:1058D0007FF471AF204600F01FFA6CE780140020BF
:1058E000A41500208414002006480068006880F396
:1058F000088862B661B6BFF34F8FBFF36F8F00DFCA
:1059000000BF000008ED00E0002382B001930D4BC2
:105910001B68013308D04FF0500383F31188BFF3A5
:105920006F8FBFF34F8FFEE74FF0500383F3118863
:10593000BFF36F8FBFF34F8F019B002BFCD002B0E2
:10594000704700BF940000204FF0807340F8043C83
:10595000054B21F0010140F8081C40F80C3C40F8D0
:10596000202C4038704700BF095900080000000093
:10597000074B19680868B0E8F00F80F30988BFF397
:105980006F8F4FF0000080F311884EF00D0E7047BE
:10599000840F00204FF0500383F31188BFF36F8F03
:1059A000BFF34F8F0A4A13680133012B13600ED1E6
:1059B0004FF0E023D3F8043DDBB243B14FF0500386
:1059C00083F31188BFF36F8FBFF34F8FFEE77047EC
:1059D00094000020084A136843B94FF0500383F342
:1059E0001188BFF36F8FBFF34F8FFEE7013B13604A
:1059F0000BB983F311887047940000200000000069
:105A0000EFF30980BFF36F8F0D4B1A6820E9F00F99
:105A100010602DE908404FF0500080F31188FFF727
:105A20002DFC4FF0000080F31188BDE80840196894
:105A30000868B0E8F00F80F30988BFF36F8F7047F4
:105A4000840F002008B54FF0500383F31188BFF393
:105A50006F8FBFF34F8FFFF7E9FA28B14FF0E023C4
:105A60004FF08052C3F8042D002383F3118808BD42
:105A70004FF0E02200234FF47A7113619361044BDD
:105A80001B68B3FBF1F3013B5361072313617047BC
:105A90000000002013B5294B00211A78D2B20192E0
:105AA000FF221A701B78264ADBB28DF803309DF86E
:105AB000033003F0500313700723224A13609DF84C
:105AC00003005C1E00060CD411B1032B136011D02F
:105AD0004FF0500383F31188BFF36F8FBFF34F8FE5
:105AE000FEE79DF8033001215B00DBB28DF8033047
:105AF0002346E4E74FF440731360019B0F4ADBB287
:105B000013704FF0E0230024D3F8202D42F47002EC
:105B1000C3F8202DD3F8202D42F07042C3F8202D79
:105B2000FFF7A6FF084B1C60FFF7DEFEFFF7A6FBA2
:105B30002046FFF7E9FE02B010BD00BF00E400E020
:105B4000AC150020B015002094000020EFF3058371
:105B50000F2B0ED9114A9B5C114A12789A4208D930
:105B60004FF0500383F31188BFF36F8FBFF34F8F54
:105B7000FEE74FF0E0230B4AD3F80C3D126803F424
:105B8000E063934208D94FF0500383F31188BFF3C9
:105B90006F8FBFF34F8FFEE7704700BFF0E300E069
:105BA000AC150020B015002010B5104B1A461B682C
:105BB0008342FBD354681119884201BF41681046E3
:105BC00009195160446801198B420CD108490968D0
:105BD0008B4203D0596821444160196890420160AA
:105BE00018BF106010BD1946F8E700BFC42100209F
:105BF000B41500202DE9F0410446FFF709FA4049A9
:105C0000404D0B680BBB404A56071FBFD01D20F00C
:105C1000070002F54062131A0CBF4FF440630246BE
:105C200000201344394E083B23F0070370603260B4
:105C3000C3E90000981AC2E900300B60344B1860C9
:105C4000344B18604FF000432B602E68264251D130
:105C5000002C42D004F1080360071CBF23F00703A7
:105C60000833002B46D02B4F3C689C4242D3274A36
:105C700015686868984204D2D5F800C0BCF1000FDE
:105C800015D10968A94235D02968D2F80080116081
:105C9000C21A102A12D9E81841070BD04FF050034E
:105CA00083F31188BFF36F8FBFF34F8FFEE72A4650
:105CB0006546DEE742606B60FFF776FF002314491C
:105CC0006A680868A41A844246EA02063C6038BF43
:105CD0000C606E6008F108042B60FFF737FA630769
:105CE0000AD04FF0500383F31188BFF36F8FBFF3D7
:105CF0004F8FFEE70024F0E72046BDE8F08100BFAB
:105D0000B4150020B8210020B8150020C4210020BF
:105D1000C0210020BC21002010B5044670B3184AF1
:105D200050F8043C1268134208D14FF0500383F33B
:105D30001188BFF36F8FBFF34F8FFEE750F8081C39
:105D400041B14FF0500383F31188BFF36F8FBFF35E
:105D50004F8FFEE723EA020340F8043CFFF758F9AF
:105D6000084A54F8043C1168A4F108000B4413607D
:105D7000FFF71AFFBDE81040FFF7E8B910BD00BFFC
:105D8000B8210020BC2100200023034A1370034ADD
:105D9000138000F08FBA00BFD7220020D822002045
:105DA0003F289ABF024B33F810004FF6FF70704740
:105DB000D02100203F289DBF024B23F81010002067
:105DC00002207047502200202DE9F04F0025AB4FF4
:105DD000C3B03B78042804462E468DF808308DF871
:105DE000090013D8A0B90223A54AE240D1071CD567
:105DF000A44A0DF1080C1288991C100A0CF8030033
:105E00000133DBB20CF80320CBB20EE0172874D1BB
:105E10009D4B1B885BBAADF80A309C4B1B885BBA64
:105E2000ADF80C300623172CDED9591C03F1020EF5
:105E3000172CC9B25FFA8EFE05D80E2C5FD8052C40
:105E400076D0062C7FD00DF10808C44600204FF60E
:105E5000FF724AF2010EC1B29942C0F0EC804FF0DD
:105E6000000902A9CA5403F1020A0133DBB2120A83
:105E70005FFA8AFACA5401F80A9000F027FA5146EC
:105E800002A800F055FA00F061FA4FF0080B8246C4
:105E900000F024FA70B109F10103DBB2019300F0C4
:105EA00039FA02AB03F80900019B0BF1FF3B99465D
:105EB0005FFA8BFBB9F1050F40F0F6809DF80820E2
:105EC0003B789A4240F077819DF8093003F07F02D9
:105ED000A24240F07281DA0900F0BE809DF80A000B
:105EE000002800F0F0800023694A1370694A13808B
:105EF000694A137043B0BDE8F08F022393E7A4F121
:105F00000F02082A9FD801A050F822F04B5F00082A
:105F1000AB5F0008475E0008475E0008475E000868
:105F2000475E0008475E00080D600008AB5F000890
:105F30005A4A12880DF1080C100A0CF80300734637
:105F40000CF801207FE7564AF3E7544A0DF1080C9C
:105F50001288100A0CF803000CF80120C2F3C701E4
:105F600052074FF0000218BF013103F1030C18BFB4
:105F7000C9B202AB03F80E10DFF824E15FFA8CFC23
:105F800002EB0C038A42DBB23FF45DAF50083EF8EF
:105F9000100012F0010F0CBFC0B2000A0DF108088A
:105FA000013208F80300D2B2EAE73C4A0DF1080CCE
:105FB0001088020A0CF80320C2B20CF8012052002B
:105FC00003F1030C02A94000D2B201F80E005FFAFF
:105FD0008CFC511D19446346DFF8C4E0C9B203F1DB
:105FE000010818460233DBB299425FFA88F802D101
:105FF0006244D3B227E73EF8029B0DF1080B4FEA4B
:10600000192A0BF800A00BF80890E8E7244A0DF1D4
:10601000080810884FEA102C08F803C008F801009F
:106020005188DA1CD2B2080A043308F80E00DBB239
:1060300008F8021007E71CF8011B4A40082102F08B
:1060400001095208B9F1000F02D082EA0E0292B2A1
:106050000139F4D10130FEE6013B162B24D8DFE8EC
:1060600003F0585858582121232323232323232383
:10607000212123232323235B580000BFD4220020A7
:106080006080C100D0220020CC210020CE21002041
:10609000D7220020D8220020D5220020D2220020A2
:1060A000502200204FF0030B00F050F9A0EB0A0043
:1060B000B0F5FA6F00F28380BBF1000F7FF4E8AE19
:1060C000B9F1040F15D900224FF6FF734AF201040B
:1060D000A9F10200D1B2814221DB02AA115CDAB23D
:1060E00091426ED102AA914419F8012CB2EB132F00
:1060F00067D19DF80930042B65D8022B65D8013B88
:10610000012B3ED800229DF80A401046324D63080C
:1061100023E09DF80AB0C7E74FF0050BC4E702AFD4
:10612000795C4B40082103F001075B080FB1634025
:106130009BB20139F7D10132CCE73F299CBF98F8D7
:10614000030098F8046008F102089CBF00EB0620E9
:1061500025F812000E4601200132D1B28B42ECD854
:1061600008B11E4A1670E2070BD53F2B06D802AACB
:1061700002EB4302D178184A22F81310174A013370
:1061800013700020AFE63F299CBF98F8040098F8F0
:10619000035008F102089CBF00EB052024F813000F
:1061A0000D4601200133D9B29142ECD30028E8D04A
:1061B0000A4B1D70E5E7E02095E6E12093E6E2203A
:1061C00091E6E3208FE6172BDBD100239DF80A2010
:1061D0001846014C5208E6E7D0210020D6220020C4
:1061E000044B1870044B03201980044B1A80FFF7EE
:1061F000EBBD00BFD4220020CC210020CE21002006
:10620000054B1870054B062019800021044B19809E
:10621000044B1A80FFF7D8BDD4220020D0220020E2
:10622000D222002050220020044B1870044B102072
:106230001980044B1A80FFF7C7BD00BFD42200208D
:10624000D0220020D22200208B18C0E90131002387
:106250000160C1600282837470470368C0E9023341
:10626000002383747047826810B54468531C9C42B5
:1062700004BF048A1B1BC4689C420BBF012311701E
:106280008374836010BDD0E902219142034609D096
:106290004A1CC260087859688A4204D1198A521A85
:1062A000DA60704700207047D0E90220131A584284
:1062B0005841704708B5C82202490348FFF7C4FF98
:1062C000012008BDDA220020A423002008B50248DE
:1062D000FFF7C3FF08BD00BFA423002008B5064890
:1062E000837C012B01D1FFF7B8FF0348FFF7DCFFE8
:1062F000B0FA80F0400908BDA423002008B5034B84
:1063000003481978FFF7AFFF08BD00BFB82300208E
:10631000A423002008B50548FFF7C6FF20B9BDE853
:1063200008400248FFF7AFBFFF2008BDA4230020AC
:106330000A4608B50146FF230348FDF727F9003850
:1063400018BF012008BD00BFE4050020FBF7E8BF2F
:1063500070B5A1FB025434B9294600F035F8064661
:1063600028B9304670BD0C2200260260F9E72A46A3
:10637000214601F049F9F4E7024B0146186800F0A4
:1063800023B800BFF000002070B50E4E0C463168F7
:10639000054611B901F078F930602146284601F030
:1063A00073F9431C0AD0C41C24F00304A04207D094
:1063B000211A284601F068F9013001D14FF0FF346D
:1063C000204670BDC02300202DE9F843CD1C25F0E8
:1063D000030508350C2D38BF0C25002D074601DBC1
:1063E000A94205D90C2300263B603046BDE8F8835E
:1063F000DFF8D08000F068F8D8F800301C465CBBAD
:1064000029463846FFF7C0FF431C044655D1D8F84B
:1064100000402646002E45D1002C48D02368314646
:10642000384604EB030901F02FF981453FD121687B
:1064300038466D1A2946FFF7A7FF013037D0236889
:106440002B442360D8F80030002B38D05A68A24281
:106450002BD100225A600FE02268521B1FD40B2A56
:1064600017D96119A342256018BF5960636808BF36
:10647000C8F8001062514B60384604F10B0600F07A
:1064800029F826F00706231DF21AAED09B1BA35055
:10649000ABE7A3426268DDD1C8F80020ECE72346F1
:1064A0006468ACE734467668B4E71346CCE70C235F
:1064B00038463B6000F00EF897E72560DCE75B604C
:1064C000FFDE00BFBC230020014801F02AB900BF55
:1064D00004250020014801F025B900BF0425002053
:1064E000002B2DE9F0471F46BBBF03F100431F46B9
:1064F00000232D2388B01446129A109D1370149B0C
:10650000DDF84CA023F02008B8F1460F05D0B8F113
:10651000450F00D10135022300E0032307AA0492AE
:1065200006AACDE902A2CDE9003522463B4601F09C
:10653000A7F9B8F1470F064602D1119BDB0722D518
:10654000B8F1460F06EB050910D13378302B0AD18C
:106550000022002320463946FAF726FA18B9C5F179
:106560000105CAF80050DAF80030994400220023EF
:1065700020463946FAF718FA08B1CDF81C903022B7
:10658000079B4B4507D33046079B159A9B1B13600F
:1065900008B0BDE8F087591C07911A70F0E7034670
:1065A000F7B5002903F8022BB6BF2D222B22494252
:1065B000092942702ADD0DF1070217460A2691FBD0
:1065C000F6F5944606FB151430340CF8014C0C46D5
:1065D000632C294602F1FF32F1DC3031ACF10204C8
:1065E00002F8011C2246411CBA420AD30DF10902ED
:1065F000A2EB0C02BC4288BF00221344181A03B05D
:10660000F0BD12F8015B01F8015FEDE73023303196
:106610008370C170031DF1E72DE9F04F91B00C4676
:10662000DDF8688016461F46054600F0F5FF036852
:1066300018460993F9F78CFD00230E93D8F8003023
:106640000A90073323F0070303F1080294F8189027
:10665000D4F800B0C8F80020D3E900A85246434659
:10666000C4E9122328F000430B934FF0FF32504649
:106670009C4B0B99FAF7CAF970BB4FF0FF325046AA
:10668000984B0B99FAF7A4F930BB0022002350462F
:106690004146FAF793F910B12D2384F84330924A1A
:1066A000924BB9F1470F94BF9046984603234FF0A1
:1066B000000A23612BF00403236033462146284659
:1066C00000970FAA00F0D6F9013040F090804FF00B
:1066D000FF3011B0BDE8F08F524643465046414668
:1066E000FAF794F948B1B8F1000FB8BF2D23804AEA
:1066F000B8BF84F843307F4BD3E7636809F0DF010C
:106700005A1C42D106236360002206920EAACDE9EC
:1067100004920DAA4BF4806303920DF13302CDE98C
:1067200001322360636852460093284643460B912A
:10673000FFF7D6FE0B99804647290D9908D1C81C52
:1067400002DB6368994240DDA9F102095FFA89F929
:10675000B9F1650F1FD84A46013904F150000D9177
:10676000FFF71DFF0E9A82461318012A236102DCEF
:106770002268D20701D5013323619DF83330002B05
:106780009BD02D2384F8433097E74729BCD1002BB9
:10679000BAD10123B7E7B9F1660F18D100296368B0
:1067A0000BDD216113B92268D00702D501330B44F8
:1067B00023614FF0000AA165DFE713B92268D20711
:1067C00001D50233F4E70123F2E74FF067090E9B8E
:1067D000994205DB23682161D807EAD54B1CE7E71E
:1067E0000029CCBF0122C1F102021344E0E7236873
:1067F0005A0507D42369424631462846B847013036
:106800002BD164E7B9F1650F40F2DD80D4E91201C4
:1068100000220023FAF7C8F8002833D001233146BC
:106820002846354AB84701303FF451AFDDE90D2322
:106830009A4202DB2368D8070FD5DDE909233146E8
:106840002846B84701303FF442AF4FF0000804F14A
:106850001A090E9B013B434509DC23689B0700F1A5
:106860000481E0680F9B9842B8BF184631E70123C6
:106870004A4631462846B84701303FF428AF08F170
:106880000108E6E70D9B002B38DC01233146284642
:10689000194AB84701303FF41AAFDDE90D3213430E
:1068A00002D12368D907D8D5DDE909233146284626
:1068B000B84701303FF40BAF4FF0000904F11A0A5A
:1068C0000D9B5B424B4501DC0E9B94E70123524636
:1068D00031462846B84701303FF4F9AE09F10109C5
:1068E000EEE700BFFFFFEF7F28AF00082CAF0008E6
:1068F00030AF000834AF000838AF00080E9AA36D1F
:106900009A42A8BF1A46002A914637DC4FF0000B86
:1069100029EAE97904F11A02D4F858A0AAEB09038C
:106920005B4533DCDDE90D239A423BDB2368DA0764
:1069300038D4DDE90D32A2EB0309A2EB0A0291453E
:10694000A8BF9146B9F1000F34DC4FF0000829EAE6
:10695000E97904F11A0ADDE90D239B1AA3EB090377
:1069600043457FF77AAF0123524631462846B84760
:1069700001303FF4ACAE08F10108ECE713463146B4
:1069800042462846B8470130C0D1A0E6012331462F
:1069900028460B92B84701303FF499AE0B9A0BF1A1
:1069A000010BB9E73146DDE909232846B847013034
:1069B000BFD18CE64B463146284608EB0A02B84761
:1069C0000130C2D183E60E9A012A01DCDB0739D5FA
:1069D0000123424631462846B84701303FF477AE9E
:1069E000DDE9092331462846B84701303FF46FAE50
:1069F000D4E9120100220023DDF83890F9F7D4FF22
:106A0000D8B909F1FF3308F1010231462846B847E9
:106A100001300ED15BE601234A4631462846B8478D
:106A200001303FF454AE08F101080E9B013B434591
:106A3000F1DC534604F15002DEE64FF0000804F1A9
:106A40001A09F2E701234246DFE701234A463146AD
:106A50002846B84701303FF43AAE08F10108E36830
:106A60000F995B1A4345F0DCFBE64FF0000804F198
:106A70001909F4E72DE9F047164699468A680B692B
:106A800007469342B8BF1346336091F843200C4643
:106A9000DDF820800AB1013333602368990642BFD4
:106AA000336802333360256815F0060506D104F11A
:106AB000190AE36832689B1AAB422BDC94F8432036
:106AC000131E226818BF0123920630D44946384667
:106AD00004F14302C047013023D02368226903F048
:106AE0000603042B14BF002533684FF0000608BFCF
:106AF000E56804F11A0408BFED1A54F8123C08BF07
:106B000025EAE5759342C4BF9B1AED18B5421AD128
:106B1000002008E00123524649463846C04701306C
:106B200003D14FF0FF30BDE8F0870135C1E73020D9
:106B3000E11881F843005A1C94F8451022440233AE
:106B400082F84310C2E70123224649463846C0472F
:106B50000130E6D00136D9E72DE9FF470F7E914697
:106B6000782F80460C469A460C9D01F1430207D8C7
:106B7000622F0AD8002F00F0D580582F00F0C18076
:106B800004F1420584F842703AE0A7F16303152B43
:106B9000F6D801A151F823F0F16B0008056C00084C
:106BA000816B0008816B0008816B0008816B000815
:106BB000056C0008816B0008816B0008816B000880
:106BC000816B00080B6D0008316C0008C56C000873
:106BD000816B0008816B00082D6D0008816B000837
:106BE000316C0008816B0008816B0008CD6C0008D7
:106BF0002B681A1D1B682A6004F1420584F8423094
:106C00000123A0E020682B68070603F10401296036
:106C100001D51E6803E04606FBD5B3F90060002EDF
:106C200003DA2D23764284F843300A23594812E0D0
:106C30002B682068191D2960050601D51E6802E031
:106C40004106FBD51E886F2F0CBF08230A2351482D
:106C5000002184F843106568002DA8BF2168A56055
:106C6000A4BF21F0040121600EB9002D4BD01546C0
:106C7000B6FBF3F103FB1167C75D05F8017D3746ED
:106C8000BB420E46F4D9082B0BD12368DE0708D58A
:106C9000236961689942DEBF302305F8013C05F1A4
:106CA000FF35521B22614B4621464046CDF800A0DD
:106CB00003AAFFF7DFFE01304AD14FF0FF3004B0E6
:106CC000BDE8F087236843F020032360782732482B
:106CD00084F84570236829681F0651F8046B02D4B4
:106CE0005F0648BFB6B2DF0748BF43F02003296004
:106CF00048BF23601EB9236823F0200323601023BC
:106D0000A6E72448E4E71546BDE72B682668181D6A
:106D10006169286035061B6801D5196002E07006BC
:106D2000FBD51980002315462361BCE72B680021A1
:106D30001A1D2A601D686268284600F0F4FC08B13C
:106D4000401B606063682361002384F84330AAE736
:106D50002A46494640462369D0470130ADD02368D2
:106D60009B0713D4E068039B9842B8BF1846A6E778
:106D70000123324649464046D04701309DD0013577
:106D8000E36803995B1AAB42F2DCEBE7002504F100
:106D90001906F5E73AAF00084BAF00082DE9F04FB0
:106DA00087B003938B6817465A1EB2F5AE7F85BF36
:106DB0006FF4AE755B190023029388BF40F25D1338
:106DC0008B464FF000058CBF8B6002930B688046AA
:106DD00043F4F0634BF81C3B0C465E46AA46A946BA
:106DE000CDE904550195A26852B13B681B784E2B42
:106DF00064D8402B3CD8A3F12B01C8B20E283AD955
:106E0000B9F1000F03D0236823F4807323600AF1E3
:106E1000FF3ABAF1010F00F213815E4500F20581DD
:106E20000125284607B0BDE8F08FA3F161020D2AC5
:106E3000E6D801A151F822F0776F0008016E000832
:106E4000016E0008016E0008D76F0008AF6F0008E0
:106E5000016E0008016E0008856F0008016E0008D1
:106E6000016E0008016E0008016E00083D6F000809
:106E7000A3F14102DBE70E29C2D801A050F821F0AE
:106E80002F6F0008016E00082F6F0008C36F000805
:106E9000016E0008DD6E0008196F0008196F000808
:106EA000196F0008196F0008196F0008196F0008A2
:106EB000196F0008196F0008196F00086E2B09D8A8
:106EC000602BB2D8542B77D0592B99D1072D97D15D
:106ED000082529E0742B6FD0792BF6E72168C805C7
:106EE0001AD5029B21F08001216009F101091BB133
:106EF000013B01320293A260A368013BA3602369B6
:106F0000013323617B68013B002B7B6040F384806D
:106F10003B6801333B6066E71AEB050F7FF470AF07
:106F2000226822F4C072226006F8013BE4E722687E
:106F300010067FF565AF22F08002F4E7BAF1000F8A
:106F40000ED1B9F1000F0ED1226802F4E061B1F563
:106F5000E06F08D122F4F0624FF0010A2260E3E70B
:106F6000BAF1020F55D0012D02D0042D7FF448AFA5
:106F70000135EDB2D8E7BAF1010F7FF441AF4FF020
:106F8000020AD1E77DB9B9F1000F7FF43CAF226866
:106F900002F4E061B1F5E06F7FF439AF22F4F06202
:106FA00001252260C0E7032DE2D0052DDEE7022D8A
:106FB0007FF426AF0325B7E7062D7FF421AF072521
:106FC000B2E7226891057FF51BAF22F420722260A0
:106FD000CDF80490A8E7226802F4A061B1F5806FB3
:106FE00006D050057FF50CAFB9F1000F3FF40FAF9D
:106FF000910558BF019922F4F06258BFA9EB010135
:1070000042F4C0724FF0000958BFCDE90416226067
:107010008AE74FF0030A87E739464046D4F88031C3
:10702000984700283FF4DFAEEAE6D4F87C313A46D0
:10703000404616F8011D98472369013B2361ECE6A1
:107040006B1E062B25D8022D36D85E457FF6E8AE9E
:10705000D4F87C313A46404616F8011D984723691A
:10706000013B2361F1E70298D4F87C3110F8011D4F
:107070003A460290404698472369013B23610AF152
:10708000FF3A5FFA8AFABAF1020FECD1033DEDB292
:10709000761B2368DA052FD55B0510D55E457FF694
:1070A000BFAED4F87C313A46404616F8011D9847E9
:1070B0002369013B2361F1E7AA460296DFE716F850
:1070C000011C2369652903F1FF3306F1FF352361B4
:1070D0000CD045290AD0D4F87C313A46404698472E
:1070E000236916F8021C013BB51E23613A4640464F
:1070F000D4F87C3198472E46256815F0100555D1F7
:107100003570236803F4C063B3F5806F1DD1019B14
:107110004B45A3EB090225D100225946404602F017
:107120008FFC039BD4F800C01B681CF0020F0646BE
:107130000F4603F1040220D003990A601B68C3E9DB
:107140000067E3680133E3606BE6049B002BE3D048
:1071500005990A232A464046013102F0F5FC049BBA
:10716000059EC21A04F26F139E4228BF04F5B7763B
:1071700030460F4900F050F9CEE71CF0040FDBD188
:10718000DDF80CC0CCF80020D3F8008002460B4696
:10719000F9F73CFC28B1074800F0E2FAC8F8000013
:1071A000CFE730463946F9F78FFCF7E7002538E698
:1071B0005CAF0008C0AB0008002310B50446C0E96E
:1071C0000033C0E90433836081814366C2818361F7
:1071D000194608225C3000F017FA0D4B24626362F6
:1071E0000C4BA3620C4BE3620C4B23630C4B9C4295
:1071F00006D003F16802944202D0D0339C4205D1FC
:1072000004F15800BDE8104000F08ABA10BD00BF7C
:10721000597400087B740008B3740008D774000820
:10722000C4230020024A0349034800F069B800BFA4
:107230009800002085A10008A400002041680C4BA4
:1072400010B59942044601D002F09CFFA168094B99
:10725000994202D0204602F095FFE168064B994220
:1072600004D02046BDE8104002F08CBF10BD00BF26
:10727000C42300202C2400209424002010B50B4BA4
:107280000B4C0C4A20461A6004210022FFF794FFA1
:1072900004F1680001220921FFF78EFF04F1D000FC
:1072A0000222BDE810401221FFF786BFFC24002017
:1072B000C423002025720008014800F032BA00BF44
:1072C00005250020014800F02DBA00BF052500204B
:1072D00010B50446FFF7F0FF236A1BB1BDE810406C
:1072E000FFF7F0BF044B2362044B1B68002BF5D162
:1072F000FFF7C4FFF2E700BF3D720008FC24002046
:107300002DE9F8430746884614460026D4E901953E
:10731000B9F1010905D52468002CF7D13046BDE844
:10732000F883AB89012B07D9B5F90E30013303D0AF
:1073300029463846C04706436835E9E70FB407B524
:10734000064904AB086853F8042B8168019302F0E6
:107350007DFD03B05DF804EB04B07047F000002041
:10736000036A70B505460E4684680BB9FFF7B0FF97
:10737000636EDB0705D4A389980502D4A06D00F0E5
:10738000D0F9A389190713D523698BB1013EA368EE
:1073900016F8011F013BA360E9B9002B2EDA224643
:1073A0000A21284600F09BF8013007D00A2507E0A3
:1073B0002146284600F0D0F80028E7D04FF0FF35EE
:1073C000636EDA0705D4A3899B0502D4A06D00F093
:1073D000A9F9284670BD002B04DAA2699A4206DC9E
:1073E0000A2904D023685A1C22601970CFE722466C
:1073F000284600F074F80130C9D1DFE70A25236878
:107400005A1C22601D70DBE7024B01461868FFF72B
:10741000A7BF00BFF00000200EB46FF0004100B520
:107420009CB01DAB02900690079104910848094951
:1074300053F8042B0591006802A9019302F0E0FBC8
:107440000022029B1A701CB05DF804EB03B0704779
:10745000F00000200802FFFF10B50C46B1F90E1035
:1074600000F000F90028ABBF636DA3891B1823F45B
:107470008053ACBF6365A38110BD2DE9F0411F4669
:107480008B890546DB050C46164605D502230022EE
:10749000B1F90E1000F0D4F8A389324623F48053DA
:1074A000A38128463B46B4F90E10BDE8F04100F038
:1074B000FBB810B50C46B1F90E1000F0C1F8431C32
:1074C000A38915BF606523F4805343F48053A381DF
:1074D00018BFA38110BDB1F90E1000F0A1B8F8B526
:1074E0000E461446054618B1036A0BB9FFF7F0FEC5
:1074F000A369A360A3891A0725D523691BB3236851
:107500002269F6B2981A63693746834204DC214641
:10751000284602F037FEE0B9A368013BA360236868
:107520005A1C22601E706269431C9A4204D0A389CF
:10753000DB0706D50A2E04D12146284602F022FE9A
:1075400038B93846F8BD2146284600F005F800282D
:10755000D5D04FF0FF37F4E738B52A4B0546186809
:107560000C4618B1036A0BB9FFF7B2FEA389B4F950
:107570000C20180722D4D90607D409232B6042F027
:1075800040034FF0FF30A38134E0580712D5616B00
:1075900041B104F14403994202D0284600F054FF5F
:1075A00000236363A38923F02403A3810023636082
:1075B00023692360A38943F00803A38123694BB99E
:1075C000A38903F42073B3F5007F03D02146284636
:1075D00002F025FEA089B4F90C2010F001030AD0B6
:1075E0000023A36063695B42A361236943B910F080
:1075F0008000C4D138BD810758BF6369A360F4E738
:107600000020F7E7F000002003460244934200D137
:10761000704703F8011BF9E700487047E4010020B8
:1076200038B50023054D044608462B60FAF7C0FB29
:10763000431C02D12B6803B1236038BD0025002014
:1076400038B50446084611460022054D2A601A4600
:10765000FAF7B8FB431C02D12B6803B1236038BD95
:107660000025002038B50446084611460022054D85
:107670002A601A46FAF780FB431C02D12B6803B13B
:10768000236038BD0025002038B50023054D044691
:1076900008462B60FAF798FB431C02D12B6803B114
:1076A000236038BD0025002038B504460846114641
:1076B0000022054D2A601A46FAF76CFB431C02D1E2
:1076C0002B6803B1236038BD00250020014B1868EA
:1076D000704700BFF000002070B500260C4D0D4C27
:1076E000641BA410A64209D103F056FA00260A4DE5
:1076F0000A4C641BA410A64205D170BD55F8043B8A
:1077000098470136EEE755F8043B98470136F2E713
:1077100050B3000850B3000850B3000854B3000839
:10772000704770477047034610B5C9B20244934290
:10773000184601D1002003E0047801338C42F6D1D1
:1077400010BD0A44914200F1FF3300D1704710B5DB
:1077500011F8014B914203F8014FF9D110BD00001F
:10776000004870470000C07F2DE9F74F03690C699E
:107770000746A3427FDB013C00F1140501F1140828
:1077800005EB8403019358F8243055F82420013385
:107790009A42B2FBF3F64FEA840B08EB840931D32B
:1077A0004FF0000E4046AC46F24650F8042B93B220
:1077B00006FB03E34FEA124E1A0C9BB206FB0E22A5
:1077C000AAEB0303DCF800A04FEA124E1FFA8AFA74
:1077D0005344DCF800A092B2C2EB1A4202EB2342FF
:1077E0009BB243EA024381454FEA224A4CF8043BEC
:1077F000DBD255F80B302BB9019B043B9D421A4656
:107800002DD33C61384601F02BF9002823DB2946B3
:107810000020013658F8042BD1F800C093B2C31AE7
:10782000120C1FFA8CF00344C2EB1C4202EB234201
:107830009BB243EA0243C1454FEA224041F8043B70
:10784000E8D255F8242005EB840322B9043B9D427D
:107850001A460AD33C61304603B0BDE8F08F126887
:10786000043B002ACDD1013CC8E71268043B002A42
:10787000F0D1013CEBE70020EEE700000000000043
:107880002DE9F04F16461F46C46999B00546CDE96B
:107890000467DDF8948074B91020FEF76DFD024690
:1078A000E86120B9EF21AC4BAC4802F049FDC0E9DA
:1078B00001440460C460EB69196851B15A6801233E
:1078C00093404A608B60284600F046FE0022EB6938
:1078D0001A603B1EAFBF0023012223F00043059333
:1078E000A8BFC8F80030DDF814909D4BB8BFC8F8A9
:1078F000002033EA090319D142F20F73249A13606E
:10790000C9F31303334300F08985269B53B9954B84
:1079100023E0954B03930833269A1360039819B01C
:10792000BDE8F08F8F4B03930333F5E7DDE90434B3
:10793000CDE90C34DDE90C0100220023F9F734F81D
:10794000804660B10123249A1360269B002B00F02F
:107950006285864B269A1360013B0393DEE716ABE4
:10796000019317AB00932846DDE90C2301F088F959
:10797000C9F30A548246002C7ED0DDE90C010D9B30
:10798000A4F2FF34C3F3130343F07F5343F44013D3
:10799000CDF84C8019460022754BF8F7E5FB68A33B
:1079A000D3E90023F8F798FD67A3D3E90023F8F79C
:1079B000DDFB064620460F46F8F724FD64A3D3E915
:1079C0000023F8F789FD02460B4630463946F8F7A2
:1079D000CDFB06460F46F9F72FF800228346002319
:1079E00030463946F8F7EAFF48B15846F8F70AFD3D
:1079F00032463B46F8F7D8FF08B90BF1FF3BBBF125
:107A0000160F57D8DDE90C015A4B03EBCB03D3E932
:107A10000023F8F7D3FF00284ED000230BF1FF3BE3
:107A20000F93169B1B1B5A1E46BFC3F1010900236F
:107A30004FF00009099248BF0993BBF1000F3DDBED
:107A4000099BCDF838B05B44099300230A93229B2D
:107A5000092B67D8052BC4BF043B2293229BC8BFC8
:107A60000024A3F10203D8BF0124032B00F2868077
:107A7000DFE803F02C393756DDE916431C4404F2E5
:107A80003243202BC1BFC3F1400309FA03F904F2CA
:107A9000124326FA03F3D6BFC3F1200349EA0300D9
:107AA00006FA03F0F8F79EFC0122A1F1F873013CFD
:107AB00013926FE70123B3E70F90B2E7CBF1000316
:107AC0000A930023A9EB0B090E93C0E700230B9345
:107AD000239B002B55DC01231A460693089323921F
:107AE0000BE00123F3E700230B93239B5B440693F6
:107AF0000133012B0893B8BF012300210422E86958
:107B000002F114069E4240D94160284600F0E4FC90
:107B1000039000283CD1024640F2AF11164BC3E659
:107B20000123E1E7012400230B9422934FF0FF335C
:107B30000022069308931223D1E700BFAFF3008021
:107B400061436F63A787D23FB3C8608B288AC63F63
:107B5000FB799F501344D33F6EAF000885AF0008F8
:107B60000000F07F6AAF000861AF000839AF00087D
:107B70000000F83F70B00008DDAF000801230B9350
:107B8000D4E7239B06930893B7E701315200B7E788
:107B9000EB69039A1A60089B0E2B00F2A880002C58
:107BA00000F0A580BBF1000F34DD9A4B0BF00F0203
:107BB00003EBC2031BF4807FD3E90034CDE910341A
:107BC0004FEA2B1416D0DDE90C01934B0327D3E9C0
:107BD0000823F8F7ABFDCDE9040104F00F048E4E45
:107BE00054B9DDE91023DDE90401F8F79FFDCDE983
:107BF000040129E00227F2E7E10708D5DDE91001D9
:107C0000D6E90023F8F768FCCDE9100101376410CC
:107C10000836E5E700F0A580DDE90C01CBF10004B2
:107C20007C4B04F00F0203EBC203D3E90023F8F707
:107C300053FC02270023CDE90401774E2411002CC8
:107C400040F08480002BD2D1DDE90434CDE910343A
:107C50000F9B002B00F08780DDE9100100226F4BA5
:107C6000F8F7ACFE00287ED0089B002B7BD0069B4B
:107C7000002B38DDDDE910010022694BF8F72CFC00
:107C8000CDE90401069C0BF1FF3801373846F8F7BF
:107C9000B9FBDDE90423F8F71FFC0022614BF8F77C
:107CA00065FAA1F15076CDE910011196002C5DD155
:107CB000DDE9040100225C4BF8F756FA02460B4658
:107CC000CDE904233346109AF8F796FE002840F0D9
:107CD0009582DDE90401109A06F10043F8F76EFE83
:107CE000002840F08982DDE90C34CDE90434179B8B
:107CF000002BC0F25181BBF10E0F00F34D81454BBB
:107D000003EBCB03D3E90034CDE90634239B002BEE
:107D100080F2DA80089B002B00F3D68040F06B8263
:107D2000DDE906010022404BF8F7D6FBDDE904232C
:107D3000F8F758FE089C2646002840F0418231237F
:107D4000039F0BF1010B07F8013B3DE2E20705D56C
:107D5000D6E90023F8F7C0FB012301376410083689
:107D60006DE7022770E7D846089C8FE70399294BF7
:107D7000214412910B9903EBC403DDE9106753E929
:107D80000223002954D000202849F8F7CFFC3B46B5
:107D90003246F8F7E9F9CDE91001039FDDE9040166
:107DA000F8F74AFE0446F8F72DFB02460B46DDE9DC
:107DB0000401F8F7D9F902460B463034CDE9042323
:107DC000DDE9102307F8014BF8F7F8FD002873D11F
:107DD000DDE9042300201149F8F7C6F9DDE9102395
:107DE000F8F7ECFD002840F0B680129B9F423FF46C
:107DF0007AAFDDE910010022094BF8F76DFB002294
:107E0000CDE91001DDE90401054BF8F765FBCDE98B
:107E10000401C3E770B0000848B000080000F03F5C
:107E20000000244000001C40000014400000E03F1F
:107E300030463946F8F750FB129BCDE91001039C00
:107E40001493DDE90401F8F7F7FD1590F8F7DAFA75
:107E500002460B46DDE90401F8F786F9159B064654
:107E6000303304F8013B129B0F469C424FF0000256
:107E700024D1DDE91001AF4BF8F778F902460B4643
:107E800030463946F8F7B8FD002863D1DDE9102304
:107E90000020A849F8F768F902460B4630463946F3
:107EA000F8F78CFD00283FF41EAF149F7B1E14933F
:107EB00017F8013C302BF8D0C3463BE09E4BF8F757
:107EC0000BFBCDE90401BCE7039FDDE90489DDE993
:107ED000062340464946F8F729FCF8F7ADFD04466D
:107EE000F8F790FADDE90623F8F7F6FA02460B46B2
:107EF00040464946F8F738F904F1300607F8016BB7
:107F0000039EDDF820C0BE1BB44502460B4636D1A9
:107F1000F8F72CF9DDE9062380468946F8F76CFD71
:107F200058BBDDE9062340464946F8F73DFD08B158
:107F3000E30722D45146284600F00EFB0023249A82
:107F40003B700BF101031360269B002B3FF4E6AC62
:107F50001F60E3E427463B461F4613F8012D392AEC
:107F600007D1039A9A42F7D13022039908F1010808
:107F70000A701A7801321A709EE7D846EBE70022A1
:107F80006D4BF8F7A9FA0022002380468946F8F7DE
:107F90000BFD00289BD0CDE70B9A002A00F0C4808F
:107FA000229A012A00F3A880139A002A00F0A080E8
:107FB00003F233434F460A9C099A01211A4428468A
:107FC0009944099200F0C8FB06465FB1099B002B5B
:107FD00008DDBB42A8BF3B46099AA9EB0309FF1A7B
:107FE000D31A09930A9BF3B10B9B002B00F0A080DE
:107FF000002C10DD31462246284600F06BFC52462C
:1080000001460646284600F0BDFB804651462846FC
:1080100000F0A2FAC2460A9B1A1B04D05146284619
:1080200000F058FC82460121284600F095FB0E9B8B
:108030000446002B40F382801A460146284600F091
:1080400049FC229B0446012B7BDD4FF0000823698D
:1080500004EB8303186900F031FBC0F12000099B99
:10806000184410F01F0000F09280C0F12003042B90
:1080700040F38580099BC0F11C0003448144074400
:108080000993B9F1000F05DD51464A46284600F034
:108090007BFC8246099B002B05DD21461A462846BB
:1080A00000F072FC04460F9B002B72D02146504614
:1080B00000F0D6FC00286CDA002351460A2228463C
:1080C00000F06CFA0B9B82460BF1FF3B002B00F09B
:1080D000AC81002331460A22284600F05FFA069B55
:1080E0000646002B00F39380229B022B59DC8EE086
:1080F000169BC3F136035DE7089B5C1E0A9BA342F7
:10810000BFBF0A9B0E9AE31AD218A8BF1C1B089B7C
:10811000BEBF0A940E920024002BB5BFA9EB030743
:108120004F460023089B47E74F460A9C0B9E4CE7AF
:108130000A9A73E70000E03F00002440229B012BD5
:1081400018DC049BB3B9059BC3F3130393B9059BD8
:1081500023F000431B0D1B057BB14FF00108099B69
:1081600009F10109013309930E9B002B7FF46FAFD6
:10817000012074E74FF00008F6E79846F4E780D056
:10818000099A1C331A4499441F44099279E703461B
:10819000F6E7089B002B34DC229B022B31DD089B89
:1081A0000693069B63B921460522284600F0F6F99E
:1081B00001460446504600F053FC00283FF7BFAD8F
:1081C000239B039F6FEA030B4FF0000821462846CC
:1081D00000F0C2F9002E3FF4ADAEB8F1000F05D0AB
:1081E000B04503D04146284600F0B6F9314628464E
:1081F00000F0B2F99EE600242646E1E7C346264693
:108200009DE50B9B002B00F0C880089B0693002F78
:1082100005DD31463A46284600F0B6FB0646B8F181
:10822000000F5BD02846716800F056F9074628B960
:10823000024640F2EF21814BFFF736BB326906F16F
:108240000C01023292000C30FFF77BFA0122394612
:10825000284600F099FBB0460646039B039A01337B
:108260000893069B13440B93049B03F001030A93AA
:10827000089B2146013B50460493FFF775FA41469F
:10828000069000F13009504600F0EAFB32460990B2
:108290002146284600F000FCC268074602BB0146A2
:1082A000504600F0DDFB0246394628460C9200F0AD
:1082B00053F9229B0C9A089F43EA02010A9B194337
:1082C00010D1B9F1390F29D0099B002B02DD069B93
:1082D00003F13109049B83F8009077E73046BAE751
:1082E0000122E1E7099B002B04DB22990B430A9949
:1082F0000B4320D1002AEDDD51460122284600F033
:1083000043FB2146824600F0ABFB002803DCE1D1B1
:1083100019F0010FDED0B9F1390FD8D13923049A01
:1083200013703B461F4617F8012C013B392A6BD0CE
:1083300001321A704AE7002A07DDB9F1390FEDD092
:10834000049A09F10103137040E7089B0B9A03F8A4
:10835000019C934242D0514600230A22284600F055
:108360001DF9B04582464FF000034FF00A02414626
:10837000284607D100F012F980460646089B0133D3
:10838000089375E700F00AF93146804600230A2277
:10839000284600F003F90646F0E7089B0693039F82
:1083A00021465046FFF7E0F9039B00F1300907F83A
:1083B000019BFA1A069B934207DD514600230A22CD
:1083C000284600F0EBF88246EAE7069B4FF00008EB
:1083D000002BCCBF1F460127039B1F44514601229F
:1083E000284600F0D1FA2146824600F039FB0028E9
:1083F00097DC02D119F0010F93D13B461F4613F8C9
:10840000012D302AFAD0E1E6039A9A428AD131232B
:108410000BF1010B97E70A4BFFF79FBA269B002B46
:108420007FF477AA074BFFF798BA069B002BB6DCC0
:10843000229B022B3FF7B5AEB1E700BFDDAF0008CE
:1084400038AF000861AF000838B50546002940D0B4
:1084500051F8043C0C1F002BB8BFE418FEF734F8A9
:108460001C4A136833B9636014602846BDE838407D
:10847000FEF730B8A34208D9206821188B4201BF0B
:1084800019685B6809182160EDE71A465B680BB153
:10849000A342FAD911685018A0420BD120680144B8
:1084A000501883421160E0D118685B68084410607E
:1084B0005360DAE702D90C232B60D6E72068211835
:1084C0008B4201BF19685B680918216063605460C2
:1084D000CBE738BDBC23002070B5C66904460D4605
:1084E00076B91020FDF748FF0246E06120B96B2104
:1084F000174B184801F024FFC0E901660660C6600A
:10850000E669F36883B1E369DB6853F82500B8B91D
:10851000012101FA05F6721D20469200FDF718FFB1
:1085200060B1C0E901560EE0212204212046FDF78A
:108530000FFFE369F060DB68002BE4D1002070BD21
:10854000026843F825200023C0E90333F7E700BFA2
:108550006EAF0008EEAF000870B5C66905460C4660
:1085600076B91020FDF708FF0246E86120B98F2197
:10857000084B094801F0E4FEC0E901660660C660E8
:108580003CB1EB696268DB6853F82210216043F864
:10859000224070BD6EAF0008EEAF00082DE9F0413B
:1085A00007460C461E4600200D6901F1140CDCF84C
:1085B0000030013099B202FB01611E0C0B0C02FB72
:1085C000063389B201EB034185424FEA13464CF86A
:1085D000041BECDC0EB3A368AB4219DC61683846BF
:1085E0000131FFF779FF804628B90246BA210C4BCA
:1085F0000C4801F0A5FE226904F10C010232920040
:108600000C30FFF79EF821463846FFF7A5FF444699
:1086100004EB850301355E6125612046BDE8F081EC
:10862000DDAF0008EEAF00082DE9F843154609223A
:108630001F4608330C4693FBF2F306460122002145
:108640009A4209DB3046FFF747FF40B90246D32183
:10865000184B194801F074FE52000131F0E7089BF5
:10866000092D43614FF00103036116DD04F109098F
:10867000C8462C4418F8013B01460A223046303BDC
:10868000FFF78CFFA045F5D1A5F108044C442D1B44
:108690006319BB4204DBBDE8F88309250A34F6E719
:1086A00014F8013B01460A223046303BFFF776FFC3
:1086B000EEE700BFDDAF0008EEAF0008020C1204C9
:1086C0000346CAB90304102013F07F4F04BF1B02F6
:1086D000083013F0704F04BF1B01043013F0404FFB
:1086E00004BF9B000230002B05DB13F0804F00F12C
:1086F000010008BF202070470020E5E7036802461C
:1087000013F007000BD0D90721D4980749BF5B08A5
:108710009B08012013605CBF02201360704799B270
:1087200009B910201B0CD9B209B908301B0A190766
:1087300004BF1B090430990704BF9B080230D90706
:1087400003D45B0800F1010003D0136070470020E0
:10875000704720207047000010B50C460121FFF73C
:10876000BBFE024628B940F24511044B044801F013
:10877000E7FD01234461036110BD00BFDDAF0008C8
:10878000EEAF00082DE9F04F91460A69D9F8103094
:108790000C469A42BEBF0B464C4699462769D9F80B
:1087A00010A0A368616807EB0A06B34285B0B8BFA2
:1087B0000131FFF791FE30B902464FF4B171434BDE
:1087C000434801F0BDFD00F114052B46002205EBE6
:1087D0008608434521D304F1140303EB870709F10D
:1087E000140303EB8A0202923A1B153A22F00302A9
:1087F000043204F115018F4238BF04220192029A1B
:1088000003939A420CD8002E03DD58F8043D002B48
:108810005AD0066105B0BDE8F08F43F8042BD8E7C5
:10882000B3F800A0BAF1000F23D0A9464FF0000C16
:1088300004F1140E5EF8042BD9F800101FFA82FB25
:1088400089B20AFB0B116144D9F800C0120C4FEA3F
:108850001C4C0AFB02C202EB114289B241EA0241FE
:1088600077454FEA124C49F8041BE3D8019A45F8C2
:1088700002C0039A0433B2F80290B9F1000F21D07C
:10888000AE464FF0000A296804F1140CBCF800B0A1
:10889000BEF8022089B209FB0B22524441EA024190
:1088A0004EF8041B5CF8041B4FEA114ABEF8001096
:1088B000674509FB0A1101EB12414FEA114AE5D85D
:1088C000019AA95004359AE7013E9CE7DDAF000804
:1088D000EEAF00082DE9F843154612F003020646F4
:1088E0000F4607D0254C013A002354F82220FFF709
:1088F00055FE0746AD103DD0F4697CB91020FDF758
:108900003BFD0246F06128B940F2B3111C4B1D48F3
:1089100001F016FDC0E901440460C460D6F81C8073
:10892000D8F808404CB940F271213046FFF714FFE7
:1089300000230446C8F8080003604FF00009EB0765
:108940000AD5394622463046FFF71CFF8046394695
:108950003046FFF701FE47466D100BD0206838B94E
:10896000224621463046FFF70DFF2060C0F80090F8
:108970000446E4E73846BDE8F88300BF38B1000894
:108980006EAF0008EEAF00082DE9F0470C46074631
:1089900091462369496803EB6218A3684FEA621A9B
:1089A00008F10106B3420BDB3846FFF795FD05469B
:1089B00048B902464FF4EF71274B284801F0C0FC3C
:1089C00001315B00EEE7002300F1140100F1100219
:1089D0001846534533DB20692AEAEA7A04F1140386
:1089E00019F01F0901EB8A0103EB800C2BD08A469A
:1089F0000022C9F1200E186800FA09F010434AF865
:108A0000040B53F8042B9C4522FA0EF2F3D8ACEB7E
:108A10000403153B23F00303043304F115008445DC
:108A200038BF0423CA500AB108F10206013E384695
:108A300021462E61FFF790FD2846BDE8F08742F8F9
:108A4000040F0133C5E7043953F8042B9C4541F862
:108A5000042FF9D8EAE700BFDDAF0008EEAF000849
:108A600003460A69006930B5801A0DD114331431F8
:108A700003EB820401EB820154F8045D51F8042DEC
:108A8000954202D004D3012030BDA342F4D3FBE7CA
:108A90004FF0FF30F8E700002DE9F84F0D4607468C
:108AA000114628461446FFF7DBFF061E11D131465A
:108AB0003846FFF711FD024628B940F237213A4BFC
:108AC0003A4801F03DFC0123C0E904361046BDE8F8
:108AD000F88FA4BF23462C4638466168A6BF1D46C2
:108AE00000260126FFF7F8FC024618B940F245219E
:108AF0002D4BE5E702F11408C2464FF0000C276940
:108B0000C6602E6904F1140005F1140900EB870E0C
:108B100009EB8606103454F804BF59F8043B1FFAD9
:108B20008BF161441FFA83FC1B0CA1EB0C01C3EB1E
:108B30001B4303EB214389B241EA03414E454FEA0F
:108B4000234C4AF8041BE6D8731B153B23F00303A0
:108B500015350433AE4238BF0423184443441E463F
:108B6000054675450ED30EF10301091A21F00301E4
:108B70000338864538BF00210B4453F8041D89B1E2
:108B80001761A3E755F8048B1FFA88F161440C14B0
:108B900004EB184489B241EA04414FEA244C46F8F8
:108BA000041BDEE7013FE8E7DDAF0008EEAF000899
:108BB0000E4B0B40A3F15073002B08DC5B42B3F16A
:108BC000A07F4FEA235204DA4FF40023134100221E
:108BD00008E0A2F114031E2BD6BF4FF00042012281
:108BE000DA40002319461046704700BF0000F07FAE
:108BF000F8B5056900F1140707EB850555F8044C35
:108C00002E1F2046FFF75AFDC0F120020A28034616
:108C1000DFF868C00A6012DCC0F10B0E24FA0EF215
:108C2000B74242EA0C012CBF002255F8082C15333C
:108C300004FA03F322FA0EF21A431046F8BDB742C3
:108C40002EBF002255F8082CA5F108060B3B12D0C8
:108C5000C3F1200522FA05F19C400C43BE4244F0CA
:108C60007F5194BF002456F8044C9A40EC4041F4E4
:108C700040112243E1E744EA0C01DEE70000F03F47
:108C8000F7B5012117461C46089EFFF725FC05464F
:108C900030B9024640F20F31224B234801F050FB1D
:108CA000C4F31303C4F30A5424BB002F019326D04A
:108CB00068460097FFF722FDDDE90012E8B1C0F138
:108CC000200302FA03F30B43C2406B610192019B44
:108CD000002B14BF02210121AB612961BCB1A4F2B8
:108CE000334404443460C0F13500099B18602846C1
:108CF00003B0F0BD43F48013D7E76961E7E701A84B
:108D0000FFF7FCFC019B01216B612030E5E7A0F23D
:108D1000324005EB810330601869FFF7CFFCC0EBF0
:108D20004110E2E7DDAF0008EEAF00082DE9F74F94
:108D3000884669468146FFF75BFF0F4604460D46AD
:108D4000404601A9FFF754FFD9F81030D8F8102099
:108D50008B46A3EB020CDDE900329B1A03EB4C13AC
:108D6000002BD5BF0A462A46C3EB033302EB035759
:108D7000D8BF02EB035B5B46024639462046F7F755
:108D8000D5FC03B0BDE8F08F013970B54911146905
:108D9000013102F1140300EB810103EB8404051F90
:108DA000A3420CD3A31A113B23F003031132A242B6
:108DB00088BF002318440023884205D370BD53F8B0
:108DC000046B45F8046FEBE740F8043BF4E700F16F
:108DD000140200694B11984210B511DB0ADD11F045
:108DE0001F0107D052F8234024FA01F000FA01F1E4
:108DF0008C420BD102EB8303934203D8002010BDB9
:108E00000346F7E753F8041D0029F5D00120F6E7E3
:108E10002DE9F0410F469046FFF7CAFE04460D4685
:108E2000B8F1000F11D0C7F30A53C3F16B03002B45
:108E30000BDD00241B0503F17F5505F54015224687
:108E40002B46F7F749FB04460D4620462946BDE868
:108E5000F0810000000000002DE9F04F9FB0179254
:108E6000002204461A920D464FF000084FF0000908
:108E70000A46199211782B294AD038D80D2932D8B0
:108E8000082932D800293BD000220E92199E327850
:108E9000302A40F0B280727802F0DF02582A6ED198
:108EA00002930E9B204601931AAB00938C4A1BAB96
:108EB00019A901F0CBFA10F00F07054605D0062FCF
:108EC00028D10023013619960E93179B002B40F0F2
:108ED000A0850E9BCBB1424609F1004310461946CE
:108EE0001FB0BDE8F08F2029CED10132C1E72D2976
:108EF000CAD101210E91511C19915278002AC5D175
:108F0000179B1995002B40F0828542464B46E5E7BA
:108F10000021EFE71A9A3AB135211CA8FFF734FF78
:108F200020461A99FFF718FB013F1B9A042F06D819
:108F3000DFE807F014031D201400DDE91C89E905B2
:108F400048BF49F0004929F000431B0D1B05002BC9
:108F5000BBD1FEF7BBFB22230360B6E702F233422C
:108F6000DDE91C8323F4801343EA0259E7E7DFF8C5
:108F70007491E4E76FF000494FF0FF38DFE7199B89
:108F80005A1C19925B78302BF9D0002B9DD001230D
:108F90004FF0000A0A22D3460593199BCDF828A06A
:108FA0000B9319980678A6F13003D9B2092926D96E
:108FB00001224D4901F089F9002830D000203246C5
:108FC00003465E460890652A01D0452A13D11EB992
:108FD000059A024394D00026199D6A1C19926A785A
:108FE0002B2A74D02D2A78D04FF0000CA2F130013A
:108FF00009297FD9199500279EE00023C8E7BBF116
:10900000080FD8BF0A9900F10100D6BF02FB013357
:1090100002FB0A3A0A930BF1010B1990C1E7199B65
:109020005A1C19925A78BBF1000F37D05E4608904F
:10903000A2F13003092B12D90123C4E7199B013097
:109040005A1C19925A78302AF8D0A2F13103082B11
:1090500000F2E484089000200646199B0B93303AF6
:1090600000F1010314D0089900EB060C1944089193
:1090700033460A21634513D13318082B06F1010644
:1090800006441ADC0A230A9903FB01230A930023EE
:10909000199A1846511C19915278C9E75846D2E7D7
:1090A000082B03F1010303DC0A9F4F430A97E1E712
:1090B000102BD8BF01FB0AFADCE7102EDCBF0A2315
:1090C00003FB0A2AE3E700230893012380E74FF01C
:1090D000000CAA1C1992AA7888E74FF0010CF8E757
:1090E00048B100080000F07F44B10008199A511CF3
:1090F00019915278302AF9D0A2F1310108293FF6AE
:109100007AAF303A0992199A0C92199A571C19970A
:109110005278A2F1300EBEF1090F38D90C997F1A9E
:10912000082F44F61F6703DC09998F42A8BF0F463A
:10913000BCF1000F00D07F42002E4FD105990143B2
:109140007FF4C3AE002B7FF4DBAE692A29D026DC86
:10915000492A26D04E2A7FF4D3AE9A4919A801F0A5
:10916000B7FB00283FF4CCAE199B1B78282B2FD1DE
:1091700095491CAA19A801F0BFFB052828D11D9B01
:10918000DDF8708043F0FF4949F4E0099DE60A21CB
:10919000099F01FB0721A1F130020992B5E76E2A70
:1091A000D9E78A4919A801F093FB00283FF4A8AE3B
:1091B000199B8749013B19A8199301F089FB10B944
:1091C000199B013319934FF00008DFF808927CE6F1
:1091D000814801F0AFF88046894676E6089BBBF1EE
:1091E000000F08BFB346FB1A102E0A9835460993A4
:1091F000A8BF1025F7F7F6F8092E8046894613DD3B
:10920000764B03EBC50353E91223F7F765F9804664
:1092100050468946F7F7E6F802460B46404649466F
:10922000F6F7A4FF804689460F2E36DC099B002BFB
:109230003FF44BAE22DD162B09DC6849424601EBB8
:10924000C3014B46D1E90001F7F746F9C3E7099A94
:10925000C6F12503934220DB604CC6F10F0604EBF8
:10926000C6014246D1E900014B46F7F735F9099BA3
:109270009E1B04EBC604D4E90023E5E7099B1633E3
:109280000BDB089B4046DF1B544B494603EBC707EB
:10929000D7E90023F7F74AFA9DE7099B751B1D44A0
:1092A000002D70DD15F00F030AD04C49424601EB4A
:1092B000C301D1E900014B46F7F70EF98046894614
:1092C00035F00F054DD0B5F59A7F22DD0026B34667
:1092D0000B96089622234FF00008DFF8F8902360E1
:1092E0000B9B002B3FF4F1AD20461A99FFF734F9A0
:1092F00020460899FFF730F959462046FFF72CF928
:1093000020460B99FFF728F931462046FFF724F94C
:10931000DBE5334B40460593002349469A462D1121
:10932000012D21DC0BB1804689462D49A9F15479E4
:1093300001EBCA014246D1E900014B46F7F7CCF8F0
:10934000244B0A460B40274980468B42BED8A1F5E4
:1093500080118B4286BF4FF0FF38DFF88C9002F10E
:109360005479002305937BE0EA0705D5059BD3E9F3
:109370000023F7F7B1F80123059A0AF1010A083230
:109380006D100592CCE7ECD06D4215F00F020AD0BB
:10939000124B404603EBC2034946D3E90023F7F7DB
:1093A000C5F9804689462D11DBD01F2D1EDD002614
:1093B000B3460B96089622234FF000084FF00009A1
:1093C00023608DE735AF00085CB100082DAF0008C1
:1093D00064AF00080000F07FC0AB000870B0000868
:1093E00048B000080000A07CFFFFEF7F15F01003DD
:1093F00018BF6A234046059349460023DFF8C8A2F8
:10940000EA0704D5DAE90023F7F766F801236D10BF
:109410000AF1080AF4D10BB180468946059BBBB11D
:10942000C9F30A52C2F16B03002B494610DD1F2B12
:1094300040F32881342BD8BF4FF0FF334FF00008A2
:10944000CFBF4FF05C79C2F14B02934003EA0109B0
:109450000022002340464946F7F7A6FA0028A6D185
:109460000A9B5A460093204633460B99FFF7DCF8D7
:109470000B9000283FF42AAF0026099A089B002A87
:10948000A3EB0703A8BF0023B346129322EAE273BB
:1094900016930B9B20465968FFF71EF8089000288A
:1094A0003FF418AF0B9B0C301A6903F10C01023228
:1094B0009200FEF746F91CAB01931BAB00934246AA
:1094C0004B462046CDF83080CDF83C90FFF7D8FBD6
:1094D0001A9000283FF4FEAE01212046FFF73CF928
:1094E000834600283FF4F6AE1B9F1C9A002FABBFAB
:1094F000129B169B07EB030ADD1B059BA8BF169D5D
:10950000A7EB03071744714B07F1FF37B8BFDDF82E
:1095100048A09F42C2F1360280F2C780DB1B1F2B9E
:109520004FF00101A2EB030200F3B38001FA03F351
:109530001393002310930AEB0207059BBA451544C9
:109540001D445346A8BF3B46AB42A8BF2B46002B49
:10955000C2BFFF1AED1AAAEB030A129B002B17DDFC
:1095600059461A462046FFF7B5F9834600283FF4CE
:10957000B1AE01461A9A2046FFF704F90A90002876
:109580003FF4A8AE20461A99FEF7E6FF0A9B1A930D
:10959000002F00F38F80099B002B08DD2046169AD0
:1095A0000899FFF797F9089000283FF493AE002D33
:1095B00008DD2A4620460899FFF7E6F908900028BA
:1095C0003FF488AEBAF1000F08DD594652462046F6
:1095D000FFF7DAF9834600283FF47CAE2046089A6C
:1095E0001A99FFF759FA064600283FF473AE002592
:1095F000C3685946C5600A93FFF732FAA8426BDA8E
:109600000A9B53EA080340F08F80C9F31303002B31
:1096100040F08A8029F000431B0D1B05B3F1D66F83
:1096200040F28280736913B93369012B7CDD3146C6
:1096300001222046FFF7A8F959460646FFF710FA1F
:10964000002871DD05994B46214A002900F08D80E4
:1096500002EA0901B1F1D66F00F38780B1F15C7FB6
:109660007FF7A9AE404649461A4B0022F6F734FF71
:10967000174B80460B408946002B7FF435AE2223E2
:10968000236031E64FF0FF3202FA03F303EA0808E1
:10969000DEE6C7F17F4707F57F0707F57B47E2372F
:1096A00001FA07F31093139145E700231093012368
:1096B000139340E73A4620461A99FFF765F91A9046
:1096C00000287FF468AF05E670B1000802FCFFFFD8
:1096D0000000F07F00005039CA4665D10A9AC9F3EC
:1096E000130352B39E4A93422AD1059B4146FBB1D4
:1096F0009C4B4FF0FF3209EA0303B3F1D46F1AD841
:109700001B0DC3F16B0302FA03F3994218D1964B78
:109710009A4502D101313FF4DDAD4FF00008914B85
:109720000AEA030303F58019059B002B9AD1DBE5B8
:109730004FF0FF33E9E71346E7E753EA080381D028
:10974000109BE3B113EA0A0FEED00A9B404649464C
:10975000059AC3B1FFF75CFB02460B460C980F99C4
:10976000F6F704FD80468946DEE71340A3F5801333
:109770006FEA13594FF0FF386FEA0959D4E7139B8A
:1097800013EA080FE0E7FFF743FB02460B460C988D
:109790000F99F6F7E9FC0022002380468946F7F787
:1097A00003F90028C0D006E659463046FFF7BEFA56
:1097B00002460B46CDE9102300224FF08043F7F715
:1097C00007F900286FD00A9B002B7CD1B8F1000F5D
:1097D00059D1C9F31303002B7BD1DDE9100100221D
:1097E000624BF7F7EBF800285AD1DDE910010022AF
:1097F0005F4BF6F771FE05460F4607F100430695ED
:109800000793DDE90623CDE91023564B554A0AEAB2
:1098100003031393574B0AEA02029A4240F0B080C6
:10982000AAF1547940464946FFF7C2F9DDE906231B
:10983000F6F752FE42464B46F6F798FCDFF824A1B5
:109840004D4A01EA0A0A9245804648D90F9A464B8A
:109850009A4203D10C9B01333FF43CAD4FF0FF38EB
:10986000DFF8049120461A99FEF776FE2046089903
:10987000FEF772FE59462046FEF76EFE3146204640
:10988000FEF76AFE05E6B8F1010F03D1B9F1000F4A
:109890003FF491AD0022394B0A9DCDE9062316E035
:1098A0000A9D334FA9E7324B0022DDE91001F6F79C
:1098B00013FE0A9B05460F46002B9ED002460B4620
:1098C000CDE906239DE70022284BCDE90623274F4B
:1098D00097E70022294B4546CDE90623F7E701F13A
:1098E0005479059BCA46002BBCD129F00043139A3A
:1098F0001B0D1B059A42B5D128463946F7F728FCBF
:10990000F6F7BCFD02460B4628463946F6F72CFC16
:109910000B460246C9F3130ACDE90C230A9B4AEA17
:10992000080A5AEA030A6CD009A3D3E90023F7F71F
:1099300045F800287FF4D8AC07A3D3E90023DDE97C
:109940000C01F7F759F800288CD0CDE4AFF3008074
:109950009535A094FFFFDF3F35E5AF350000E03FD0
:10996000FFFF0F000000F07FFFFFEF7F0000F03FE0
:109970000000E03F0000E07FFFFF9F7C0000F0BFA1
:10998000059B33B3139BB3F1D46F22D828A3D3E93B
:10999000002328463946F7F71BF8A0B13946284678
:1099A000F7F772F8012838BF0120F6F71BFD0A9B74
:1099B00005460F4603BB01F1004314901593DDE902
:1099C0001423CDE91023119B139A03F1D6639B1A3C
:1099D00011930C980F99DDE91089FFF7E9F8024619
:1099E0000B4640464946F6F777FD0C9A0F9BF6F773
:1099F000BDFB8046894674E702460B46CDE9142339
:109A0000DDE70DA3D3E90023F6F7D8FF9BE700239A
:109A10000E93199B179A1360FFF75BBA652A3FF400
:109A200052AB452A3FF44FAB0123FFF787BB00BF82
:109A30000000C0FFFFFFDF419535A094FFFFCF3F3F
:109A4000014BFFF709BA00BFF4000020012B2DE9FC
:109A5000F0478646904601D0242B06D9FDF736FE06
:109A6000162303600020BDE8F0870D4635482A46DE
:109A700015F8014B065D16F00806F8D12D2C2ED1F5
:109A800001262C78951C002B57D0102B09D1302C97
:109A900007D12A7802F0DF02582A49D110236C78C6
:109AA0000235002206F1004C0CF1FF3CBCFBF3F93F
:109AB000104603FB19CAA4F13007092F14D83C46FD
:109AC000A34220DD571C07D0814519D301D1A245FF
:109AD00016DB012200FB034015F8014BEBE72B2CB2
:109AE00004BF2C78951CCEE7A4F14107192F01D8AB
:109AF000373CE5E7A4F16107192F04D8573CDFE7AD
:109B00004FF0FF32E8E7531C08D122236046CEF81D
:109B10000030B8F1000FA6D0691E06E006B1404241
:109B2000B8F1000F9FD0002AF6D1C8F800109AE7CC
:109B30003024002BB5D10823B3E7302CA9D00A2359
:109B4000AFE700BF99B10008FFF780BF2DE9F047EC
:109B50001F468E688246BE420C4690460B682CD843
:109B60008A8912F4906F26D06569096905EB45056D
:109B7000A3EB010905EBD5757B1C4B446D109D4291
:109B800038BF1D46530527D52946FCF71DFC064660
:109B900060B34A462169FDF7D4FDA38923F490639D
:109BA00043F08003A38126614E4426603E466561F2
:109BB000A5EB0905A560BE4200D93E4632464146A6
:109BC000206800F068FB0020A3689B1BA36023684B
:109BD00033442360BDE8F0872A4600F03AFF06468A
:109BE0000028E0D150462169FEF72EFC0C23CAF86C
:109BF0000030A3894FF0FF3043F04003A381E9E731
:109C00002DE9F04F98468B8907461B060D461446F2
:109C10009DB00ED50B6963B94021FCF7D5FB2860D8
:109C2000286120B90C233B604FF0FF30D0E0402387
:109C30006B610023099320238DF8293030234FF0E6
:109C40000109CDF80C80DFF8A0818DF82A30234679
:109C50009A4613F8012B0AB1252AF9D1BAEB040B65
:109C60000BD05B46224629463846FFF76FFF01308E
:109C700000F0A980099A5A4409929AF80030002B02
:109C800000F0A18000234FF0FF32CDE905230AF157
:109C9000010A049307938DF853301A935446052212
:109CA00014F8011B5048FDF73EFD049AD8B9D006C0
:109CB00044BF20238DF85330110744BF2B238DF868
:109CC00053309AF800302A2B15D0544600204FF01C
:109CD0000A0C079A214611F8013B303B092B4DD95C
:109CE000B0B1079214E0A0EB080309FA03F31343A1
:109CF000A2460493D2E7039B191D1B680391002B16
:109D0000BBBF5B4242F0020207930793B8BF0492C5
:109D100023782E2B0CD163782A2B34D1039B023469
:109D20001A1D1B680392002BB8BF4FF0FF33059339
:109D3000DFF8B8A0032250462178FDF7F4FC38B1D3
:109D40004022049BA0EB0A00824013430134049399
:109D500014F8011B062226488DF82810FDF7E3FCB5
:109D6000002838D0234B1BBB039B073323F007038A
:109D700008330393099B3344099368E70C46012099
:109D80000CFB0232A6E700234FF00A0C19460134FF
:109D90000593204610F8012B303A092A03D9002BED
:109DA000C6D00591C4E7044601230CFB0121F0E76E
:109DB00003AB00932A4638460F4B04A9FCF72CFC52
:109DC000421C0646D6D1AB895B063FF52DAF0998FC
:109DD0001DB0BDE8F08F03AB00932A463846064B12
:109DE00004A9FCF7B9FEEBE799B200089FB200089E
:109DF000A3B20008196600084D9B0008936810B4D0
:109E0000013B002B936007DA9469A34201DB0A2926
:109E100002D110BCFDF763BB1368581C10601970A9
:109E2000084610BC7047F8B506460F461446D518CC
:109E3000AC4201D1002007E03A46304614F8011B3D
:109E4000FFF7DCFF431CF3D1F8BD00002DE9F04F14
:109E50000D461446984606469DB018B1036A0BB9E4
:109E6000FDF736FA6B6ED90705D4AB899A0502D493
:109E7000A86DFDF756FCAB891B0701D52B699BB973
:109E800029463046FDF768FB70B16B6EDC0704D5E0
:109E90004FF0FF301DB0BDE8F08FAB899805F7D4C7
:109EA000A86DFDF73FFCF3E70023099320238DF80D
:109EB000293030234FF00109CDF80C80DFF8AC8158
:109EC0008DF82A3023469A4613F8012B0AB1252A29
:109ED000F9D1BAEB040B0BD05B462246294630463B
:109EE000FFF7A1FF013000F0A980099A5A440992B6
:109EF0009AF80030002B00F0A18000234FF0FF32D1
:109F0000CDE905230AF1010A049307938DF8533034
:109F10001A935446052214F8011B5448FDF703FC1C
:109F2000049AD8B9D10644BF20238DF853301307C3
:109F300044BF2B238DF853309AF800302A2B15D0CC
:109F4000544600204FF00A0C079A214611F8013BB5
:109F5000303B092B4DD9B0B1079214E0A0EB0803B8
:109F600009FA03F31343A2460493D2E7039B191D96
:109F70001B680391002BBBBF5B4242F002020793B8
:109F80000793B8BF049223782E2B0CD163782A2B29
:109F900034D1039B02341A1D1B680392002BB8BFF7
:109FA0004FF0FF330593DFF8C8A003225046217815
:109FB000FDF7B9FB38B14022049BA0EB0A008240B8
:109FC00013430134049314F8011B062229488DF829
:109FD0002810FDF7A8FB00283FD0274B1BBB039B95
:109FE000073323F0070308330393099B3B4409938A
:109FF00068E70C4601200CFB0232A6E700234FF075
:10A000000A0C194601340593204610F8012B303A0A
:10A01000092A03D9002BC6D00591C4E704460123C1
:10A020000CFB0121F0E703AB00932A463046134BAB
:10A0300004A9FCF7F1FA0746781CD6D16B6ED90754
:10A0400005D4AB899A0502D4A86DFDF76BFBAB89EB
:10A050005B063FF51DAF09981CE703AB00932A464A
:10A060003046064B04A9FCF777FDE4E799B20008F7
:10A070009FB20008A3B2000819660008279E0008D6
:10A080008A89F8B5054610070C4657D44B68002B53
:10A0900004DC0B6C002B01DC0020F8BDE66A002E0E
:10A0A000FAD0002312F480522F68216A2B6032D03C
:10A0B000606DA3895A0705D56368C01A636B0BB13D
:10A0C000236CC01A00230246E66A2846216AB0477C
:10A0D000431CA38906D129681D292BD8284A0A4187
:10A0E000D60727D4002262602269D904226004D5F1
:10A0F000421C01D12B6803B96065616B2F60002998
:10A10000CAD004F14403994202D02846FEF79CF9D4
:10A1100000206063C1E701232846B047411CC8D135
:10A120002B68002BC5D01D2B01D0162B01D12F6021
:10A13000B2E7A38943F04003A381AEE70F69002F84
:10A14000AAD0930718BF00230E6808BF4B69F61BFF
:10A150000F608B60002E9FDD33463A462846216A09
:10A16000D4F828C0E047002806DCA3894FF0FF3070
:10A1700043F04003A38190E70744361AEAE700BFA3
:10A18000FEFFBFDF38B50B6905460C4613B9002545
:10A19000284638BD18B1036A0BB9FDF799F8B4F930
:10A1A0000C30002BF3D0626ED00704D4990502D492
:10A1B000A06DFDF7B6FA28462146FFF761FF636EF2
:10A1C0000546DA07E4D4A3899B05E1D4A06DFDF729
:10A1D000A9FADDE770B50C46B1F90E101546002955
:10A1E0001E4696B00CDAA389002113F0800F0CBF35
:10A1F0004FF480634023002031602B6016B070BDA7
:10A200006A4600F075F80028EDDB019901F4704111
:10A21000A1F50053594259414FF48063EBE78B8914
:10A2200073B59D0706460C4607D504F14703236026
:10A2300023610123636102B070BD6A4601ABFFF781
:10A24000C9FF009905463046FCF7BEF848B9B4F995
:10A250000C309A05EFD423F0030343F00203A381EB
:10A26000E3E7A389206043F08003A381009B206182
:10A270006361019B5BB13046B4F90E1000F04AF8FF
:10A2800028B1A38923F0030343F00103A381A38929
:10A290001D43A581CFE7884210B501EB020402D926
:10A2A0008442234607D8431EA14208D011F8012B4F
:10A2B00003F8012FF8E7014602448A4200D110BD9D
:10A2C00013F8014D02F8014DF7E710B56AB10139F5
:10A2D000841810F8012B11F8013F9A4203D1A042D3
:10A2E00001D0002AF5D1D01A10BD1046FCE70000BD
:10A2F00038B50023064D0446084611462B60F7F793
:10A300005AFD431C02D12B6803B1236038BD00BF46
:10A310000025002038B50023054D044608462B6073
:10A32000F7F74EFD431C02D12B6803B1236038BD03
:10A330000025002000200149704700BF0000F87F81
:10A340001FB514461A46094B05461B68D8684CB120
:10A35000074BCDE9013400912B46064900F0B6FBCE
:10A3600000F0C6FB044B1C46F3E700BFF0000020E2
:10A37000B2B20008BFB20008C0AB000803692DE903
:10A38000F043B3EB611F00F114044FEA611246DDA4
:10A3900011F01F0104EB830604EB82050CD1294662
:10A3A00000F11007B14235D39B1A9B00EA1E96427A
:10A3B00038BF0023234415E0A14654F82270C1F1B0
:10A3C0002008CF4005F1040E7645F44616D89A1AB7
:10A3D0009200043A0135AE4238BF0022A318A750BC
:10A3E00007B10433A342A3EB040208BF00234FEAE2
:10A3F000A202026108BF4361BDE8F083DCF800C03F
:10A400000CFA08FC4CEA070749F8047B5EF8047B69
:10A41000CF40D9E751F804CB47F804CFC2E7234631
:10A42000E0E7A0F13003092B02D82038C0B2704712
:10A43000A0F16103052B01D84738F7E7A0F14103EC
:10A44000052B01D82738F1E7002070472DE9F04FA0
:10A4500081468A4617460A6885B002F1020BC2F1AE
:10A46000FF2202F57F020293FE3202EB0B03D84675
:10A470001BF8010B01933028F7D0FFF7D2FF0446F9
:10A48000002838D101224046A749FFF71EFF0646A3
:10A49000002869D198F801005D46FFF7C2FF002847
:10A4A00064D05A4610789046302802F10102F9D063
:10A4B000FFF7B7FF0123B0FA80F45E466409019309
:10A4C0004246154628780132FFF7ABFF0028F8D145
:10A4D000012228469449FFF7F8FE78B946B96E1C68
:10A4E0003246154628780132FFF79BFF0028F8D145
:10A4F000731B9E0004E000242646E1E7002EF7D1FE
:10A500002B7803F0DF03502B3DD16B782B2B2FD012
:10A510002D2B31D04FF0000B691C0878FFF781FF1D
:10A52000421ED2B2182A2ED8A0F1100211F8010F43
:10A53000FFF777FF00F1FF3C5FFA8CFCBCF1180FCE
:10A540001DD9BBF1000F00D052421644CAF80010CA
:10A55000DCB1019B002B14BF4FF000084FF0060840
:10A56000404605B0BDE8F08F454626460124C7E7C2
:10A570004FF0000BA91CD0E74FF0010BFAE70A23BC
:10A5800003FB0200D0E72946E0E72146A5EB0803DC
:10A59000013B072B0ADC4846FDF79EFF044640B905
:10A5A0000246E421614B6248FFF7CAFE01315B10AD
:10A5B000EFE700239B4600F1140ACDF804A0A8455C
:10A5C00044D3DDF80480584648F804BBA8EB0A08D9
:10A5D0004FEAA80222614FEA4218FEF76FF83D6881
:10A5E000A8EB0008A84559DDA8EB05084146204620
:10A5F000FEF7EDFB8346B8B14FF0010B08F1FF33D6
:10A6000059115AF8211003F01F020BFA02F20A4204
:10A610000AD05B4506DD2046A8F10201FEF7D7FB14
:10A62000002838D14FF0020B41462046FFF7A6FE26
:10A630004644BB68B34241DA21464846FDF78CFFE9
:10A6400000230E9A4FF0A308136089E715F8012D37
:10A650002E2A14D0202B06D1019B43F804BB4FF0C7
:10A66000000B01935B4628780393FFF7DAFE039B08
:10A6700000F00F0098404BEA000B04339FE7A84519
:10A68000E8D80122284628490393FFF71EFE039BC2
:10A690000028DFD193E74FF0030BC5E70BDAA5EBFA
:10A6A0000808214642464846FEF76EF90446A6EBE6
:10A6B000080600F1140A4FF0000BBAE77B68B342BA
:10A6C00074DD9E1BB54235DCFB68022B23D0032BC7
:10A6D00025D0012B15D1B54213D1012D0BD17B68AB
:10A6E000029A4FF06208136001232361CAF8003018
:10A6F0000E9B1C6034E72046691EFEF768FB0028AD
:10A70000EDD121464846FDF727FF00230E9A4FF072
:10A710005008136024E70F9B002BF2D1DFE70F9B5B
:10A72000002BDCD1EDE700BF44B10008DDAF00082D
:10A73000EEB2000806F1FF38BBF1000F33D1B8F1DB
:10A74000000F04D041462046FEF741FB834601231B
:10A750004FEA681208F01F0803FA08F34FF00208E6
:10A760005AF8222031461342204618BF4BF0020B04
:10A77000AD1BFFF703FE7E68BBF1000F4AD0FB68FC
:10A78000022B16D0032B18D0012B09D11BF0020F7E
:10A7900006D0DAF800304BEA030B1BF0010F0FD1A3
:10A7A00048F0100836E04FF0010BD0E74FF00108F9
:10A7B000E2E70F9BC3F101030F930F9B002BEFD038
:10A7C000D4F810B004F114024FEA8B030193002374
:10A7D00002EB8B00944652F8041BB1F1FF3F1ED0F0
:10A7E0000131CCF80010B8F1020F04F114023DD190
:10A7F0003B68013BAB420BD10123691105F01F05FA
:10A8000003FA05F552F821301D4218BF4FF0010838
:10A8100048F020080E9B1C60029B1E60A0E6904240
:10A8200042F8043CD6D8A268934517DB61684846D5
:10A830000131FDF751FE824618B9024684211A4BB8
:10A84000B1E6226904F10C01023292000C30FCF7EF
:10A8500078FF21464846FDF77FFE54462269511C89
:10A860002161012104EB82025161BCE72169594554
:10A870000BDD01212046FFF781FDBB680136B342A5
:10A88000FFF6DAAE4FF00108C2E715F01F05F9D068
:10A89000019BC5F120051A4452F8040CFDF70EFF88
:10A8A000A842E6DBEEE700BFDDAF0008C2F1080218
:10A8B000920070B5C2F120064368046803FA06F5F9
:10A8C0002C43D340046040F8043F8842F4D370BD69
:10A8D00030B50368013311F8014B14B9036001204E
:10A8E00030BD13F8012BA2F14105192D98BF20327C
:10A8F000A242F0D00020F3E72DE9F04F00250B68CD
:10A9000082465E1102EB860613F01F0318BF043661
:10A91000371F9046B9463C46AB4687B00168019365
:10A9200046F8045C02954A784B1C039342B31046E8
:10A9300005910492FFF775FD00284FD1049A0599FF
:10A94000202A18D8029B9B4513DD4C4506D2072DC3
:10A9500004DC2A4649462046FFF7A8FF444550D963
:10A960000023A4F1040944F8043C1D464C46CDF8EC
:10A9700008B00399D7E7292A55D10231CAF8001047
:10A98000BBF1000F4FD04C4506D2072D04DC2A4600
:10A9900049462046FFF78AFF444534D92346A8F1AB
:10A9A000040253F8041B9F4242F8041FF9D23B1BD8
:10A9B00023F003030433033E0134A64238BF0423CB
:10A9C0000022434443F8042B9F42FBD23B681BB94F
:10A9D000474526D101233B60052025E00135082DA0
:10A9E0000BF1010B06DD4445C3D90023012544F8D2
:10A9F000043C043C226800F00F0040EA0210206092
:10AA0000B7E70825B5E7019B002BDFD04FF0FF32F9
:10AA1000C3F12003DA4056F8043C134046F8043CE6
:10AA2000D4E7043FD2E7042007B0BDE8F08F82B03E
:10AA300001B901A942B14BB113780B601278101E15
:10AA400018BF012002B070471046FBE76FF001000D
:10AA5000F8E72DE9F041804614460E4621B911462B
:10AA6000BDE8F041FBF7B0BC2AB9FDF7EDFC254687
:10AA70002846BDE8F08100F042F88442074602D83B
:10AA8000B4EB500F12D821464046FBF79DFC05461B
:10AA90000028EDD0BC422246314628BF3A46FCF79A
:10AAA00050FE31464046FDF7CFFCE1E73546DFE793
:10AAB0000346084641B1FF2A04D98A224FF0FF30ED
:10AAC0001A60704701200A70704700000EB403B589
:10AAD000014603AB054853F8042B00680193FFF7C8
:10AAE000B5F902B05DF804EB03B07047F000002048
:10AAF000062008B500F034F80120F7F737F951F8CF
:10AB0000043C181F002BBCBF0B58C01870471F29EE
:10AB100038B504460D4604D9162303604FF0FF30C4
:10AB200038BDC26B12B152F821304BB9204600F04B
:10AB300031F82A4601462046BDE8384000F018B8F2
:10AB4000012B0AD0591C03D1162303600120E7E72B
:10AB50000024284642F8254098470020E0E70000FE
:10AB6000024B01461868FFF7D2BF00BFF00000207B
:10AB700038B50023064D0446084611462B60F7F70A
:10AB8000EDF8431C02D12B6803B1236038BD00BF30
:10AB900000250020F7F7E0B8F8B500BFF8BC08BC06
:10ABA0009E467047F8B500BFF8BC08BC9E4670478B
:10ABB00070776D206F75747075743A2564200D0A76
:10ABC00000757064617465207461736B20706F6CC4
:10ABD0006C200D0070776D20706964206374726C56
:10ABE000207461736B207374617274200D00757032
:10ABF00064617465207461736B2073746172742076
:10AC00000D006D6173746572207461736B207374D1
:10AC10006172740D00736C617665207461736B20D2
:10AC200073746172740D00736C6176655461736B3B
:10AC3000006D61737465725461736B00757064614B
:10AC400074655461736B0070776D4374726C5461FA
:10AC5000736B000031AC0008000000000000000031
:10AC600000000000000000000002000008000000DA
:10AC7000000000000000000047AC000800000000D9
:10AC800000000000000000000000000000020000C2
:10AC900018000000000000000000000027AC0008C1
:10ACA00000000000000000000000000000000000A4
:10ACB000000200000800000000000000000000008A
:10ACC0003CAC000800000000000000000000000094
:10ACD000000000000002000008000000000000006A
:10ACE000000000000000000000000000010203045A
:10ACF000060708090000000001020304020304051E
:10AD0000060708090A0B0C0D0E0F101001020002B5
:10AD100004040404040600C1814001C0804101C054
:10AD2000804100C1814001C0804100C1814000C11B
:10AD3000814001C0804101C0804100C1814000C10B
:10AD4000814001C0804100C1814001C0804101C0FB
:10AD5000804100C1814001C0804100C1814000C1EB
:10AD6000814001C0804100C1814001C0804101C0DB
:10AD7000804100C1814000C1814001C0804101C0CB
:10AD8000804100C1814001C0804100C1814000C1BB
:10AD9000814001C0804101C0804100C1814000C1AB
:10ADA000814001C0804100C1814001C0804101C09B
:10ADB000804100C1814000C1814001C0804101C08B
:10ADC000804100C1814001C0804100C1814000C17B
:10ADD000814001C0804100C1814001C0804101C06B
:10ADE000804100C1814001C0804100C1814000C15B
:10ADF000814001C0804101C0804100C1814000C14B
:10AE0000814001C0804100C1814001C0804101C03A
:10AE1000804100C1814000C0C101C30302C2C60617
:10AE200007C705C5C404CC0C0DCD0FCFCE0E0ACA82
:10AE3000CB0BC90908C8D81819D91BDBDA1A1EDED2
:10AE4000DF1FDD1D1CDC14D4D515D71716D6D21282
:10AE500013D311D1D010F03031F133F3F23236F692
:10AE6000F737F53534F43CFCFD3DFF3F3EFEFA3A42
:10AE70003BFB39F9F83828E8E929EB2B2AEAEE2ED2
:10AE80002FEF2DEDEC2CE42425E527E7E62622E242
:10AE9000E323E12120E0A06061A163A3A26266A692
:10AEA000A767A56564A46CACAD6DAF6F6EAEAA6A02
:10AEB0006BAB69A9A86878B8B979BB7B7ABABE7E52
:10AEC0007FBF7DBDBC7CB47475B577B7B67672B202
:10AED000B373B17170B05090915193535292965692
:10AEE0005797559594549C5C5D9D5F9F9E5E5A9AC2
:10AEF0009B5B99595898884849894B8B8A4A4E8E52
:10AF00008F4F8D4D4C8C44848545874746868242C1
:10AF100043834181804049444C4500546D72510047
:10AF2000546D722053766300494E4600696E660088
:10AF30004E414E006E616E00300030313233343598
:10AF40003637383941424344454600303132333494
:10AF500035363738396162636465660065256C642F
:10AF600000496E66696E697479004E614E00524503
:10AF7000454E54206D616C6C6F632073756363651F
:10AF800065646564002F6275696C642F676E752D4A
:10AF9000746F6F6C732D666F722D73746D33325FC7
:10AFA00031312E332E72656C312E323032333039DE
:10AFB00031322D313630302F7372632F6E65776CDE
:10AFC00069622F6E65776C69622F6C6962632F739B
:10AFD00074646C69622F64746F612E630042616CEB
:10AFE0006C6F6320737563636565646564002F62CD
:10AFF00075696C642F676E752D746F6F6C732D6639
:10B000006F722D73746D33325F31312E332E726552
:10B010006C312E32303233303931322D31363030DE
:10B020002F7372632F6E65776C69622F6E65776C14
:10B0300069622F6C6962632F7374646C69622F6D2F
:10B04000707265632E6300000080E03779C341436E
:10B05000176E05B5B5B89346F5F93FE9034F384D7E
:10B06000321D30F94877825A3CBF737FDD4F15752A
:10B07000000000000000F03F00000000000024403D
:10B0800000000000000059400000000000408F4018
:10B09000000000000088C34000000000006AF84083
:10B0A0000000000080842E4100000000D0126341A7
:10B0B0000000000084D797410000000065CDCD411D
:10B0C000000000205FA00242000000E876483742FE
:10B0D000000000A2941A6D42000040E59C30A2429C
:10B0E0000000901EC4BCD64200003426F56B0C4311
:10B0F0000080E03779C3414300A0D88557347643B8
:10B1000000C84E676DC1AB43003D9160E458E14318
:10B11000408CB5781DAF154450EFE2D6E41A4B448D
:10B1200092D54D06CFF08044F64AE1C7022DB544D2
:10B13000B49DD9794378EA44050000001900000065
:10B140007D0000002E00000035000000CEFBFFFF58
:10B15000CB030000010000000000000034000000EC
:10B16000CEFBFFFFCB030000010000000000000049
:10B17000BC89D897B2D29C3C33A7A8D523F64939CD
:10B180003DA7F444FD0FA5329D978CCF08BA5B25EF
:10B19000436FAC6428066811002020202020202066
:10B1A0002020282828282820202020202020202077
:10B1B0002020202020202020208810101010101087
:10B1C00010101010101010101004040404040404D3
:10B1D000040404101010101010104141414141416D
:10B1E000010101010101010101010101010101014F
:10B1F000010101011010101010104242424242425F
:10B20000020202020202020202020202020202021E
:10B2100002020202101010102000000000000000C6
:10B22000000000000000000000000000000000001E
:10B23000000000000000000000000000000000000E
:10B2400000000000000000000000000000000000FE
:10B2500000000000000000000000000000000000EE
:10B2600000000000000000000000000000000000DE
:10B2700000000000000000000000000000000000CE
:10B2800000000000000000000000000000000000BE
:10B29000000000000000000000232D302B2000687B
:10B2A0006C4C00656667454647004300504F534964
:10B2B00058002C2066756E6374696F6E3A200061C9
:10B2C0007373657274696F6E202225732220666124
:10B2D000696C65643A2066696C6520222573222CAE
:10B2E000206C696E65202564257325730A002F6222
:10B2F00075696C642F676E752D746F6F6C732D6636
:10B300006F722D73746D33325F31312E332E72654F
:10B310006C312E32303233303931322D31363030DB
:10B320002F7372632F6E65776C69622F6E65776C11
:10B3300069622F6C6962632F7374646C69622F6732
:10B3400064746F612D6765746865782E6300000012
:04B3500035010008BB
:04B3540011010008DB
:10B358000024F400010000001000000002000000BA
:10B3680011000000B93D0008040000005D3D000820
:10B3780003000000713C000810000000253C000894
:10B3880006000000F73B000817000000CB3C00084F
:10B3980001000000793A000805000000E53A0008BD
:10B3A8000F000000333B0008020000008D3B00083E
:10B3B8000000000000000000000000000000000085
:10B3C8000000000000000000000000000000000075
:10B3D8000000000000000000000000000000000065
:10B3E800BE070020AAAAAAAA0000000003000000C5
:10B3F800C423002000000000C42300202C240020C7
:10B40800942400200000000000000000000000005C
:10B418000000000000000000000000000000000024
:10B428000000000000000000000000000000000014
:10B438000000000000000000000000000000000004
:10B44800A4000020430000000000000000000000ED
:10B4580000000000000000000000000000000000E4
:10B468000000000043000000000000000000000091
:10B4780000000000000000000000000000000000C4
:10B488000000000043000000000000000000000071
:10B4980000000000000000000000000000000000A4
:10B4A8000000000043000000000000000000000051
:10B4B8000000000000000000000000000000000084
:10B4C8000000000043000000000000000000000031
:10B4D8000000000000000000000000000000000064
:10B4E8000000000043000000000000000000000011
:10B4F8000000000000000000000000000000000044
:10B5080000000000430000000000000000000000F0
:10B518000000000000000000000000000000000023
:10B5280000000000B1AA00082FAA000800000000CF
:10B5380098B1000844B10008C0AB0008C0AB0008CF
:10B54800C0AB0008C0AB0008C0AB0008C0AB000827
:10B55800C0AB0008C0AB0008C0AB0008FFFFFFFF8E
:10B56800FFFFFFFFFFFFFFFFFFFF00000100415348
:10B5780043494900000000000000000000000000EE
:10B58800000000000000000000000000000041531F
:10B5980043494900000000000000000000000000CE
:10B5A8000000000000000000000000000000000093
:04000005080022517C
:00000001FF
